:100000000C94AE000C94D0080C9401090C942A09AD
:100010000C945B090C948C090C9452020C94CB0048
:100020000C94CB000C94CB000C94CB000C94580A8D
:100030000C94CB000C94CB000C94CB000C94CB0014
:100040000C94CB000C94110D0C94CB000C94CB00B1
:100050000C94CB000C94CB000C94CB000C94CB00F4
:100060000C94CB000C94CB00496E697469616C6987
:100070007A696E67207375636365737366756C2E3A
:1000800000496E697469616C697A6174696F6E2088
:100090006661696C656420666F72206E5246323408
:1000A0004C30312E20436865636B20636F6E6E6544
:1000B0006374696F6E73005374617274696E672044
:1000C0006E524632344C303120696E205472616E6B
:1000D000736D6974204D6F64652E2E2E005374610C
:1000E0007274696E67206E524632344C303120692A
:1000F0006E2052656365697665204D6F64652E2EAE
:100100002E004D6173746572205258205061796CD5
:100110006F6164206C656E67746820736574207409
:100120006F203A20004D617374657220545820503E
:1001300061796C6F6164206C656E677468207365AB
:100140007420746F203A2000446F6E6500506F7702
:100150006572696E67206F6E2E2E2E0011241FBEF1
:10016000CFEFD8E0DEBFCDBF11E0A0E0B1E0E8EB1B
:10017000FBE102C005900D92A234B107D9F722E04D
:10018000A2E4B1E001C01D92A03DB207E1F70E94D8
:100190004C0B0C94DA0D0C9400001092640008953E
:1001A000809342010895249884B18C6284B92A9A7C
:1001B0008CB582658CBD089584B1837D84B9249A01
:1001C0008CB58F7E8CBD8CB580648CBD08958823E2
:1001D00021F08CB580648CBD08958CB58F7B8CBD6F
:1001E0000895882321F08CB580688CBD08958CB566
:1001F0008F778CBD08958EBD0DB407FEFDCF8EB5F3
:100200000895709389006093880010928000877031
:1002100088608093810082E080936F0078940895D5
:100220008130E9F018F0823099F10895442359F0B3
:1002300025B181E090E002C0880F991F6A95E2F72E
:10024000822B85B9089525B181E090E002C0880F26
:10025000991F6A95E2F78095822385B90895442312
:1002600059F028B181E090E002C0880F991F6A958B
:10027000E2F7822B88B9089528B181E090E002C0AE
:10028000880F991F6A95E2F78095822388B90895AF
:10029000442359F02BB181E090E002C0880F991FF0
:1002A0006A95E2F7822B8BB908952BB181E090E03B
:1002B00002C0880F991F6A95E2F7809582238BB957
:1002C00008958130E9F018F0823099F108954423BF
:1002D00059F024B181E090E002C0880F991F6A951F
:1002E000E2F7822B84B9089524B181E090E002C046
:1002F000880F991F6A95E2F78095822384B9089543
:10030000442359F027B181E090E002C0880F991F83
:100310006A95E2F7822B87B9089527B181E090E0D2
:1003200002C0880F991F6A95E2F78095822387B9EA
:100330000895442359F02AB181E090E002C0880F6B
:10034000991F6A95E2F7822B8AB908952AB181E054
:1003500090E002C0880F991F6A95E2F7809582238A
:100360008AB90895E8E6F0E0908121E030E0082EB7
:1003700002C0220F331F0A94E2F7292B2083813019
:1003800081F018F08230C9F00895EBE6F0E080814A
:1003900050E002C0440F551F6A95E2F7482B408396
:1003A0000895ECE6F0E0808150E002C0440F551F54
:1003B0006A95E2F7482B40830895EDE6F0E08081EE
:1003C00050E002C0440F551F6A95E2F7482B408366
:1003D0000895813069F018F0823099F01BC083B124
:1003E00090E002C0959587956A95E2F7817008952F
:1003F00086B190E002C0959587956A95E2F7817085
:10040000089589B190E002C0959587956A95E2F7C5
:100410008170089580E008959093C5008093C40092
:1004200088E18093C1008EE08093C2000895E0ECE3
:10043000F0E0908195FFFDCF8093C6000895209154
:10044000450130914601409147015091480160912A
:10045000490170914A0180914B0190914C01A1E0BA
:100460000E94B90D20934501309346014093470106
:10047000509348016093490170934A0180934B0166
:1004800090934C018091430190914401892B49F054
:10049000809143019091440101979093440180938E
:1004A000430108951F920F920FB60F9211248F935C
:1004B00084B78E7F84BF8F910F900FBE0F901F90D7
:1004C00018950F93EEE8F1E0A6E9B1E0219308E07A
:1004D0000E949D0DEA17FB07C9F78EE891E00F9186
:1004E00008958A3010F0895C0895805D08951F9307
:1004F000CF93DF93182F82958F700E947102C6E907
:10050000D1E08883812F8F7080939B010E947102BC
:1005100089831A82CE01DF91CF911F9108952F9286
:100520003F924F925F926F927F928F929F92AF9283
:10053000BF92CF92DF92EF92FF920F931F93CF93D0
:10054000DF93CDB7DEB7C756D1090FB6F894DEBF3B
:100550000FBECDBFA6962FAFA697832E742E652E05
:10056000562E472E382E292EA0E00E94CE0D21F4C3
:1005700080E30E94170252C0912C81E090E08C0F22
:100580009D1F890D911DA8969FAF8EAFA8970F2E26
:10059000FAE0AF2EF02DB12CC12CD12CE12CF12C96
:1005A00000E010E0A6962FADA697382D472D562DCA
:1005B000652D742D832D922D0E94230D205DA8960C
:1005C000EEADFFADA8972083A6962FADA697382D48
:1005D000472D562D652D742D832D922D0E94250DAE
:1005E000A6962FAFA697832E742E652E562E472ED5
:1005F000382E292E9394A0E00E94CE0D09F0BDCF95
:10060000992061F09A94E1E0F0E0EC0FFD1FE90D14
:10061000F11D80810E9417029110F4CF80E20E94A8
:100620001702C959DF4F0FB6F894DEBF0FBECDBF1A
:10063000DF91CF911F910F91FF90EF90DF90CF90BE
:10064000BF90AF909F908F907F906F905F904F90F2
:100650003F902F900895CF93DF93EC018DE00E949F
:1006600017028AE00E941702FE018491882349F054
:10067000FE0184910E9417022196FE01849181114E
:10068000F7CFDF91CF910895CF93DF93EC018DE009
:100690000E9417028AE00E9417028881882331F0A5
:1006A00021960E94170289918111FBCFDF91CF9192
:1006B0000895CF93DF93EC018881882331F0219650
:1006C0000E94170289918111FBCFDF91CF9108958C
:1006D000FF920F931F93CF93DF93F62E062F10E018
:1006E00001501109080F191F80E30E94170288E7C3
:1006F0000E941702FF2081F0E80121968FEF8F0DF5
:10070000081B11098A9180938D010E9477020E9433
:100710005903C017D107B1F7EF2DF0E0E35BFE4FAF
:1007200012828DE491E0DF91CF911F910F91FF90A4
:1007300008950F930E946102602F0E9468030E9437
:1007400059030F910895409880E50E94FB0083E7CC
:100750000E94FB00409A0895862F40980E94FB005B
:10076000409A0895AF92BF92CF92DF92EF92FF929C
:100770000F931F93CF93DF93862FA42E40980E9450
:10078000FB00AA2021F1D0E0C0E0B12CC12CD12C7B
:10079000E12CF12C00E010E080E00E94FB002C2F07
:1007A000282B3B2D4C2D5D2D6E2D7F2D802F912FD5
:1007B00008E00E94820DC22FB32EC42ED52EE62E45
:1007C000F72E082F192FDF5FDA11E6CF08C0C0E03F
:1007D000B12CC12CD12CE12CF12C00E010E0409A7E
:1007E0002C2F3B2D4C2D5D2D6E2D7F2D802F912F8D
:1007F00008E00E949D0DDF91CF911F910F91FF9016
:10080000EF90DF90CF90BF90AF90089541E067E107
:100810000E94B203822F827008950F9341E067E037
:100820000E94B20306E00E949D0D822F81700F91FD
:1008300008959F92AF92BF92CF92DF92EF92FF9274
:100840000F931F93CF93DF93C22FD32FB42EA52ED8
:100850004098862F80620E94FB00982ECC20D1F019
:10086000D12C8E2D0E94FB002E2D3F2D402F512F7D
:100870006C2F7D2F8B2D9A2D08E00E949D0DE22E6E
:10088000F32E042F152FC62FD72FB82EA92ED394B1
:10089000DC10E7CF409A892DDF91CF911F910F9106
:1008A000FF90EF90DF90CF90BF90AF909F90089512
:1008B000CF92EF92FF920F931F93CF93DF93EC01B0
:1008C000E62E41E060E00E94B2032D7FEE0CE22AAA
:1008D000EB82CC24C394F12C00E010E020E030E067
:1008E00040E050E060E0CE010E941904DF91CF911A
:1008F0001F910F91FF90EF90CF900895AF92BF920C
:10090000CF92DF92EF92FF920F931F93CF93DF93DB
:10091000EC01D62E41E060E00E94B2032E7FE22E71
:10092000ED28EB82CC24C394F12C00E010E020E011
:1009300030E040E050E060E0CE010E941904DD208C
:1009400029F08DED90E00E942B0304C087EB90E02E
:100950000E942B0341E060E0CE010E94B203AB8015
:10096000B12CC12CD12CE12CF12C00E010E00E9424
:10097000C50D29F081E890E00E942B0304C088E6B1
:1009800090E00E942B03DF91CF911F910F91FF9078
:10099000EF90DF90CF90BF90AF900895AF92BF924D
:1009A000CF92EF92FF920F931F93CF935C01E62EAD
:1009B000C42F41E062E00E94B20381E090E00E2C7F
:1009C00002C0880F991F0A94E2F7809582234C2F6A
:1009D00050E002C0440F551FEA94E2F7E82EE42AE3
:1009E000F501E382CC24C394F12C00E010E020E078
:1009F00030E040E050E062E0C5010E941904CF9170
:100A00001F910F91FF90EF90CF90BF90AF900895FE
:100A1000CF92EF92FF920F931F93CF93DF93EC014E
:100A2000E62E41E06DE10E94B2032D7FEE0CE22A3A
:100A3000EB82CC24C394F12C00E010E020E030E005
:100A400040E050E06DE1CE010E941904DF91CF91AA
:100A50001F910F91FF90EF90CF900895CF92EF925A
:100A6000FF920F931F93CF93DF93EC01E62E41E0AB
:100A70006DE10E94B2032B7FEE0CEE0CE22AEB82BA
:100A8000CC24C394F12C00E010E020E030E040E002
:100A900050E06DE1CE010E941904DF91CF911F91CA
:100AA0000F91FF90EF90CF900895AF92BF92CF92A9
:100AB000EF92FF920F931F93CF93DF93663048F529
:100AC000C42FD62F5C0141E06CE10E94B20381E0AB
:100AD00090E00D2E02C0880F991F0A94E2F78095CE
:100AE00082234C2F50E002C0440F551FDA95E2F7E5
:100AF000E82EE42AF501E382CC24C394F12C00E033
:100B000010E020E030E040E050E06CE1C5010E94E0
:100B10001904DF91CF911F910F91FF90EF90CF902B
:100B2000BF90AF900895CF92EF92FF920F931F93D3
:100B3000CC24C3946894EE24E6F8F12C00E010E095
:100B400020E030E040E050E067E00E9419041F918F
:100B50000F91FF90EF90CF900895CF92EF92FF9278
:100B60000F931F93CF93DF93EC01E62E41E066E0F5
:100B70000E94B203277FEE0CEE0CEE0CE22AEB8211
:100B8000CC24C394F12C00E010E020E030E040E001
:100B900050E066E0CE010E941904DF91CF911F91D1
:100BA0000F91FF90EF90CF900895CF92EF92FF9228
:100BB0000F931F93CF93DF93EC01389A399A419AA0
:100BC000579A1A8285E291E00E942B03288130E037
:100BD00040E050E060E070E080E090E00E948F0232
:100BE00082E091E00E942B03298130E040E050E058
:100BF00060E070E080E090E00E948F02CC24C3941B
:100C0000E12CF12C00E010E020E030E040E050E08A
:100C100064E0CE010E94190461E0CE010E94AD059E
:100C20006F81CE010E947E048885882359F0CE0111
:100C30000E94A30361E0CE010E942E0561E0CE0177
:100C40000E94080561E0CE010E945804DF91CF9117
:100C50001F910F91FF90EF90CF9008953FEF51EECD
:100C600074E0315050407040E1F700C00000FC01DA
:100C7000278321E02087608341830E94D505089562
:100C8000CF92EF92FF920F931F93F22F242F462FB4
:100C90006AE06E0D0F2EF5E0CF2EF02DE02EF12E36
:100CA0000F2F132F352F572F0E9419041F910F91CB
:100CB000FF90EF90CF90089562EE0E94AC030895EC
:100CC0009F92AF92BF92CF92DF92EF92FF920F93DB
:100CD0001F93CF93DF935C01D62E972ECC24C39421
:100CE0006894EE24E6F8F12C00E010E020E030E01B
:100CF00040E050E067E00E941904409881E60E94BD
:100D0000FB00F5018081882361F0CD2DD92D80E095
:100D10000E94FB0089932C2F2D19F5019081291732
:100D2000B0F3409AC5010E940604882319F0C5015A
:100D30000E945C06DF91CF911F910F91FF90EF9081
:100D4000DF90CF90BF90AF909F900895089510923C
:100D5000AF0186EA96E090939D0180939C010895EF
:100D6000FC017787668770939F0160939E0121E065
:100D7000248F0895CF93DF93EC011BA21CA20E9445
:100D8000050ACE010E94E5098C8D811104C0809175
:100D9000A9018823C9F08091AA01882361F081E02C
:100DA0000E94D000E0919E01F0919F01309761F088
:100DB0008EA1099509C081E00E94D000EE85FF85D3
:100DC000309711F08EA10995DF91CF910895CF93BF
:100DD000DF939091AF019923C1F0D82FC0E0EC2FA1
:100DE000F0E0EE0FFF1FE055FE4F0190F081E02D87
:100DF00091A59D1305C0309719F0CF010E94BA0646
:100E0000CF5F9091AF01C91750F3DF91CF91089553
:100E10008093AA018093A9018093A8018093A701E0
:100E20008093A601089583B1EBEAF1E0808386B157
:100E3000818389B182830895FC0180A5813049F0C6
:100E400018F0823059F00EC08091AB018093AE0152
:100E500009C08091AC018093AE0104C08091AD01C6
:100E60008093AE01828D81A32091AE0130E007A076
:100E700002C0359527950A94E2F72170228F0895D4
:100E8000EF92FF920F931F93CF93DF93EC01F62E17
:100E9000E42E89011F861E861B8A1A8A198A188ADF
:100EA0001D8A1C8A1F8A1E8A198E188E0E94C609E6
:100EB000EFA2F8A640E06E2D8F2D0E94610141E067
:100EC0006FA188A50E94100141E06E2D8F2D0E9418
:100ED000B20188A5813041F018F0823049F00BC092
:100EE00083B18093AE0107C086B18093AE0103C089
:100EF00089B18093AE018091AF01E82FF0E0EE0F51
:100F0000FF1FE055FE4F118300838EA38F5F8093F8
:100F1000AF01CE010E941307CE010E941C071F8E55
:100F2000CE010E94550A89A7DF91CF911F910F91A1
:100F3000FF90EF900895CF93DF93EC010E941C0780
:100F40008A8D811120C089A1882309F478C08BA1E2
:100F5000811108C02FEA38E040E06CEB72E0CE016E
:100F60000E94D70981E08AA38BA1882341F068E51C
:100F700072E0CE010E94F20981E08CA31BA28A8D4F
:100F8000882309F45CC089A1811159C08CA1811109
:100F900006C0CE010E94EA099DA78CA705C0CE011C
:100FA0000E94FD099DA78CA7CE010E94050ACE01D3
:100FB0000E94E5091AA28CA59DA50B978D3492403D
:100FC00098F58CA1811117C08DA181112FC08F8D33
:100FD000882359F027EE36E040E064E670E0CE0169
:100FE0000E94D70981E08BA303C0CE010E94BA06FC
:100FF0008CA1882309F18091AA01882361F081E006
:101000000E94D000E091A401F091A501309761F019
:101010008EA1099509C081E00E94D000EA89FB8970
:10102000309711F08EA109958DA181111DA28CA17F
:10103000882329F01CA203C08DA18111F7CFDF9175
:10104000CF910895CF938091AF01882391F0C0E0B4
:10105000EC2FF0E0EE0FFF1FE055FE4F80819181F5
:10106000009711F00E949B07CF5F8091AF01C817D6
:1010700078F3CF910895CF93DF93EC0118A21BA2D0
:101080001CA28DA1882389F1CE010E941307CE01F5
:101090000E941C078A8D811128C08E8D811104C089
:1010A0008091A601882309F12FEA38E040E066E448
:1010B00070E0CE010E94D7098091AA01882361F0D7
:1010C00081E00E94D000E091A001F091A101309751
:1010D00061F08EA1099509C081E00E94D000EC89E1
:1010E000FD89309711F08EA109958AA18823A1F17D
:1010F000CE010E941307CE010E941C078A8D811128
:101100002BC08D8D811104C08091A701882321F10E
:101110001AA281E08DA32FEA38E040E062E370E09C
:10112000CE010E94D7098091AA01882361F081E055
:101130000E94D000E091A201F091A301309761F0EC
:101140008EA1099509C081E00E94D000E889F98943
:10115000309711F08EA10995DF91CF910895CF932B
:10116000DF939091AF019923C1F0D82FC0E0EC2F0D
:10117000F0E0EE0FFF1FE055FE4F0190F081E02DF3
:1011800091A59D1305C0309719F0CF010E943B082F
:10119000CF5F9091AF01C91750F3DF91CF910895C0
:1011A0001F920F920FB60F9211242F933F934F93DC
:1011B0005F936F937F938F939F93AF93BF93EF93BF
:1011C000FF9383B1EBEAF1E0808386B1818389B13B
:1011D00082830E94CD0080E00E94D0000E942208FD
:1011E000FF91EF91BF91AF919F918F917F916F91FF
:1011F0005F914F913F912F910F900FBE0F901F90D5
:1012000018951F920F920FB60F9211242F933F93B0
:101210004F935F936F937F938F939F93AF93BF93FE
:10122000EF93FF930E94CD0080E00E94D0000E94C7
:101230002208FF91EF91BF91AF919F918F917F9184
:101240006F915F914F913F912F910F900FBE0F9033
:101250001F9018951F920F920FB60F9211242F9383
:101260003F934F935F936F937F938F939F93AF932E
:10127000BF93EF93FF9383B1EBEAF1E0808386B1F4
:10128000818389B182830E94CD0080E00E94D000DA
:101290000E942208FF91EF91BF91AF919F918F9192
:1012A0007F916F915F914F913F912F910F900FBE62
:1012B0000F901F9018951F920F920FB60F92112446
:1012C0002F933F934F935F936F937F938F939F934E
:1012D000AF93BF93EF93FF9383B1EBEAF1E0808389
:1012E00086B1818389B182830E94CD0080E00E9413
:1012F000D0000E942208FF91EF91BF91AF919F9182
:101300008F917F916F915F914F913F912F910F90AE
:101310000FBE0F901F9018951F920F920FB60F924D
:1013200011242F933F934F935F936F937F938F93EA
:101330009F93AF93BF93EF93FF9383B1EBEAF1E0F9
:10134000808386B1818389B182830E94CD0080E051
:101350000E94D0000E942208FF91EF91BF91AF91AF
:101360009F918F917F916F915F914F913F912F91BD
:101370000F900FBE0F901F90189560E87EE381E0FC
:101380000E94010181E08093BC010895DC019091ED
:10139000BC01E92FF0E0EE0FFF1FEB53FE4FB183CE
:1013A000A08315969C939F5F9093BC010895FC01C8
:1013B00071836083738362833587248781E08387A9
:1013C000448380E00E94D0000895FC0113861182BE
:1013D00010820895FC018281938120813181821BDA
:1013E000930B0895FC017783668381E08287718780
:1013F000608780E00E94D0000895FC01808591857F
:1014000026813781821B930B0895FC011782168277
:1014100012860895CF93DF93EC018B858823E1F04A
:1014200088819981009729F0019799838883892B76
:1014300099F48C81813029F48A819B8199838883F6
:1014400005C0811103C01B8619821882EC85FD85B9
:10145000309711F08D8109958A85882351F08E810E
:101460009F81009729F001979F838E83892B09F430
:101470001A86DF91CF910895CF938091BC01882384
:1014800091F0C0E0EC2FF0E0EE0FFF1FEB53FE4FAA
:1014900080819181009711F00E940A0ACF5F8091AC
:1014A000BC01C81778F3CF910895FC018581089598
:1014B0001F920F920FB60F9211242F933F934F93C9
:1014C0005F936F937F938F939F93AF93BF93EF93AC
:1014D000FF930E941F022091BD013091BE014091F7
:1014E000BF015091C0016091C1017091C201809112
:1014F000C3019091C401A1E00E94B90D2093BD01E8
:101500003093BE014093BF015093C0016093C1016D
:101510007093C2018093C3019093C4010E943C0A5E
:10152000FF91EF91BF91AF919F918F917F916F91BB
:101530005F914F913F912F910F900FBE0F901F9091
:10154000189591E09093CB028093CE02089581E0AC
:101550008093CC02439943980895CF93C82F482F86
:1015600063E082E00E9410014C2F62E082E00E9462
:1015700010014C2F65E082E00E9410014C2F64E0C6
:1015800082E00E941001CF910895823079F018F422
:10159000813031F00895833079F0843099F00895E6
:1015A000462F63E082E00E9410010895462F62E01A
:1015B00082E00E9410010895462F65E082E00E94BB
:1015C00010010895462F64E082E00E941001089502
:1015D000823071F018F4813031F019C0833069F035
:1015E000843081F014C063E082E00E94E901089534
:1015F00062E082E00E94E901089565E082E00E94D5
:10160000E901089564E082E00E94E901089580E024
:10161000089581E090E00E940C0241E062E081E0E8
:101620000E94610141E063E081E00E94610141E0CC
:1016300062E082E00E94610141E063E082E00E949A
:10164000610141E064E082E00E94610141E065E007
:1016500082E00E94610140E062E082E00E941001AD
:1016600040E063E082E00E94100140E064E082E03C
:101670000E94100140E065E082E00E94100140E01D
:1016800062E081E00E94100140E060E081E00E94A1
:1016900061010E94D3000895CF93DF93CDB7DEB7E9
:1016A00029970FB6F894DEBF0FBECDBF0E94090B7D
:1016B0002FEF89E698E1215080409040E1F700C08B
:1016C00000008DE491E00E942B0321E041E061E005
:1016D000CE0101960E942E0641E062E0CE01019605
:1016E0000E94CE0441E063E0CE0101960E94CE0448
:1016F00041E064E0CE0101960E94CE0441E065E045
:10170000CE0101960E94CE0441E060E0CE01019638
:101710000E94550541E061E0CE0101960E94550509
:1017200041E062E0CE0101960E94550541E063E090
:10173000CE0101960E94550541E064E0CE0101967C
:101740000E94550541E065E0CE0101960E945505D5
:10175000E12C01EC1AEB2AEB3AEB4AEE50E060E0A8
:1017600070E0CE0101960E944006EE24E39402EC64
:101770002AEB3AEB4AEE50E060E070E0CE010196D1
:101780000E94400661E0CE0101960E9458040E942A
:10179000DC0081E00E94F10078940E94BD0989EB91
:1017A00092E00E94C60927EA3AE040E064E670E071
:1017B00089EB92E00E94D7090E94A7062BE832E04D
:1017C00046E062E0C9010E9440072DE532E047E0B3
:1017D00062E0C9010E9440072FE232E040E060E091
:1017E000C9010E94400721E032E041E060E0C90108
:1017F0000E94400761EA7AE08BE892E00E94B0061E
:1018000081E00E94080788E491E00E942B03809108
:10181000CD02882309F4E0C01092CD028091CF025E
:101820008A3A09F446C08091CF02807F90E0959576
:1018300087959595879595958795959587958093A7
:10184000CA022091CF022F702093C9023091CF029B
:10185000307D303D69F482E191E00E94440381E0F3
:101860009091C902911101C080E00E94AD0A06C0AA
:1018700061E0211101C060E00E94C50A439A27EA95
:101880003AE040E06EE170E089EB92E00E94D70917
:101890008FE191E00E9444032091CF0201E030E00B
:1018A00040E050E060E070E080E090E00E9499034A
:1018B00073C080E00E94F10080E00E94E7000E9477
:1018C000D30087EC90E00197F1F700C00000CE0153
:1018D00001960E940D04882309F456C068EC72E05A
:1018E000CE0101960E946006CE0101960E949305EA
:1018F000CE0101960E945C068091C802282F207FAD
:1019000009F130E03595279535952795359527953B
:10191000359527952093CA02982F9F709093C902FE
:10192000807D803D39F481E0911101C080E00E940A
:10193000AD0A10C061E0911101C060E0822F0E94E9
:10194000C50A08C00E94E80A61E068278091C802C1
:101950000E94C50A439A27EA3AE040E06EE170E04F
:1019600089EB92E00E94D70982E391E00E94440350
:101970002091C80201E030E040E050E060E070E01B
:1019800080E090E00E94990380E00E94E7000E94BE
:10199000DC0081E00E94F10081E00E94E80A082F4B
:1019A00082E00E94E80A182F83E00E94E80A110FE3
:1019B00024E0829FC0011124212F282B122F102BED
:1019C00084E00E94E80A28E0829FC0011124212FB0
:1019D000282B2093C7022EBD8091CB028823C9F00B
:1019E0001092CB028091CE028F5F0E94E80A909104
:1019F000CE0261E0682781E0890F0E94C50A439A00
:101A000027EA3AE040E06EE170E089EB92E00E9464
:101A1000D7098091CC02882309F4F9CE1092CC0228
:101A2000F6CE1F920F920FB60F9211248F938EB5A0
:101A30008093CF0281E08093CD028F910F900FBEF3
:101A40000F901F901895689401C0E8948F929F9210
:101A5000CF93DF930E94310DDF91CF919F908F90B4
:101A6000089588249924F401E401B0E49F93AA27FF
:101A70009A158B049C04ED05FE05CF05D007A10740
:101A800098F4AD2FDC2FCF2FFE2FE92D982C892E27
:101A9000982F872F762F652F542F432F322F2227F1
:101AA000B85031F7BF9127C01B2EBF91BB27220F23
:101AB000331F441F551F661F771F881F991F881CDF
:101AC000991CEE1FFF1FCC1FDD1FAA1FBB1F8A140E
:101AD0009B04EC05FD05CE05DF05A007B10748F026
:101AE0008A189B08EC09FD09CE09DF09A00BB10B90
:101AF00021601A94E1F62EF49401AF01BE01CD01EC
:101B0000000C08950F93083090F0982F872F762FB0
:101B1000652F542F432F322F22270850F4CF220F46
:101B2000331F441F551F661F771F881F991F0A9573
:101B3000B2F70F91089597FB10F8169400080F93D1
:101B4000083098F00850232F342F452F562F672F39
:101B5000782F892F902DF4CF0594979587957795B9
:101B6000679557954795379527950A95AAF70F9149
:101B700008950024A7FD00942A0F301D401D501D1C
:101B8000601D701D801D901D08952A153B054C0594
:101B90005D056E057F058007910708950024A7FD68
:101BA00000942A1730054005500560057005800532
:081BB00090050895F894FFCFA1
:101BB80050696E207374617465206368616E67652F
:101BC80064004368616E67696E6720616C6C0043EE
:101BD8006F6D6D616E642072656365697665643AE0
:101BE8002000446174612072656365697665643AB2
:021BF8002000CB
:00000001FF
