:100000000C94AE000C9415080C9446080C946F08E0
:100010000C94A0080C94D1080C941B020C94CB00F7
:100020000C94CB000C94CB000C94CB000C9499094D
:100030000C94CB000C94CB000C94CB000C94CB0014
:100040000C94CB000C94F60A0C94CB000C94CB00CF
:100050000C94CB000C94CB000C94CB000C94CB00F4
:100060000C94CB000C94CB00496E697469616C6987
:100070007A696E67207375636365737366756C2E3A
:1000800000496E697469616C697A6174696F6E2088
:100090006661696C656420666F72206E5246323408
:1000A0004C30312E20436865636B20636F6E6E6544
:1000B0006374696F6E73005374617274696E672044
:1000C0006E524632344C303120696E205472616E6B
:1000D000736D6974204D6F64652E2E2E005374610C
:1000E0007274696E67206E524632344C303120692A
:1000F0006E2052656365697665204D6F64652E2EAE
:100100002E004D6173746572205258205061796CD5
:100110006F6164206C656E67746820736574207409
:100120006F203A20004D617374657220545820503E
:1001300061796C6F6164206C656E677468207365AB
:100140007420746F203A2000446F6E6500506F7702
:100150006572696E67206F6E2E2E2E0011241FBEF1
:10016000CFEFD8E0DEBFCDBF11E0A0E0B1E0E2E824
:10017000F7E102C005900D92A234B107D9F722E051
:10018000A2E4B1E001C01D92A630B207E1F70E94DF
:100190003C0A0C94BF0B0C9400001092640008956C
:1001A000809342010895249884B18C6284B92A9A7C
:1001B0008CB582658CBD089584B1837D84B9249A01
:1001C0008CB58F7E8CBD8CB580648CBD08958823E2
:1001D00021F08CB580648CBD08958CB58F7B8CBD6F
:1001E0000895882321F08CB580688CBD08958CB566
:1001F0008F778CBD08958EBD0DB407FEFDCF8EB5F3
:100200000895709389006093880010928000877031
:1002100088608093810082E080936F0078940895D5
:100220008130E9F018F0823099F10895442359F0B3
:1002300025B181E090E002C0880F991F6A95E2F72E
:10024000822B85B9089525B181E090E002C0880F26
:10025000991F6A95E2F78095822385B90895442312
:1002600059F028B181E090E002C0880F991F6A958B
:10027000E2F7822B88B9089528B181E090E002C0AE
:10028000880F991F6A95E2F78095822388B90895AF
:10029000442359F02BB181E090E002C0880F991FF0
:1002A0006A95E2F7822B8BB908952BB181E090E03B
:1002B00002C0880F991F6A95E2F7809582238BB957
:1002C00008958130E9F018F0823099F108954423BF
:1002D00059F024B181E090E002C0880F991F6A951F
:1002E000E2F7822B84B9089524B181E090E002C046
:1002F000880F991F6A95E2F78095822384B9089543
:10030000442359F027B181E090E002C0880F991F83
:100310006A95E2F7822B87B9089527B181E090E0D2
:1003200002C0880F991F6A95E2F78095822387B9EA
:100330000895442359F02AB181E090E002C0880F6B
:10034000991F6A95E2F7822B8AB908952AB181E054
:1003500090E002C0880F991F6A95E2F7809582238A
:100360008AB90895813069F018F0823099F01BC085
:1003700083B190E002C0959587956A95E2F7817008
:10038000089586B190E002C0959587956A95E2F749
:100390008170089589B190E002C0959587956A951E
:1003A000E2F78170089580E008959093C5008093EE
:1003B000C40088E18093C1008EE08093C20008955C
:1003C000E0ECF0E0908195FFFDCF8093C6000895AA
:1003D00020914501309146014091470150914801DB
:1003E0006091490170914A0180914B0190914C01BB
:1003F000A1E00E949E0B209345013093460140935B
:100400004701509348016093490170934A018093DA
:100410004B0190934C018091430190914401892BB1
:1004200049F08091430190914401019790934401D8
:100430008093430108951F920F920FB60F921124DB
:100440008F9384B78E7F84BF8F910F900FBE0F90D4
:100450001F9018950F93EEE8F1E0A6E9B1E0219323
:1004600008E00E94820BEA17FB07C9F78EE891E0CB
:100470000F9108958A3010F0895C0895805D089589
:100480001F93CF93DF93182F82958F700E943A02AB
:10049000C6E9D1E08883812F8F7080939B010E94F1
:1004A0003A0289831A82CE01DF91CF911F9108957C
:1004B0002F923F924F925F926F927F928F929F9274
:1004C000AF92BF92CF92DF92EF92FF920F931F9362
:1004D000CF93DF93CDB7DEB7C756D1090FB6F894E7
:1004E000DEBF0FBECDBFA6962FAFA697832E742E6C
:1004F000652E562E472E382E292EA0E00E94B30BD3
:1005000021F480E30E94E00152C0912C81E090E050
:100510008C0F9D1F890D911DA8969FAF8EAFA89738
:100520000F2EFAE0AF2EF02DB12CC12CD12CE12CE6
:10053000F12C00E010E0A6962FADA697382D472DA0
:10054000562D652D742D832D922D0E94080B205D54
:10055000A896EEADFFADA8972083A6962FADA697DF
:10056000382D472D562D652D742D832D922D0E94EB
:100570000A0BA6962FAFA697832E742E652E562EA5
:10058000472E382E292E9394A0E00E94B30B09F039
:10059000BDCF992061F09A94E1E0F0E0EC0FFD1FEF
:1005A000E90DF11D80810E94E0019110F4CF80E2FD
:1005B0000E94E001C959DF4F0FB6F894DEBF0FBEAD
:1005C000CDBFDF91CF911F910F91FF90EF90DF9002
:1005D000CF90BF90AF909F908F907F906F905F90E3
:1005E0004F903F902F900895CF93DF93EC018DE0D3
:1005F0000E94E0018AE00E94E001FE0184918823CC
:1006000049F0FE0184910E94E0012196FE0184914F
:100610008111F7CFDF91CF910895CF93DF93EC0154
:100620008DE00E94E0018AE00E94E0018881882339
:1006300031F021960E94E00189918111FBCFDF9179
:10064000CF910895CF93DF93EC018881882331F017
:1006500021960E94E00189918111FBCFDF91CF911A
:100660000895FF920F931F93CF93DF93F62E062FDB
:1006700010E001501109080F191F80E30E94E001EA
:1006800088E70E94E001FF2081F0E80121968FEFCA
:100690008F0D081B11098A9180938D010E944002E1
:1006A0000E942203C017D107B1F7EF2DF0E0E35B02
:1006B000FE4F12828DE491E0DF91CF911F910F9157
:1006C000FF9008950F930E942A02602F0E94310329
:1006D0000E9422030F910895409880E50E94FB003C
:1006E00083E70E94FB00409A0895862F40980E945D
:1006F000FB00409A0895AF92BF92CF92DF92EF92A3
:10070000FF920F931F93CF93DF93862FA42E4098D1
:100710000E94FB00AA2021F1D0E0C0E0B12CC12C46
:10072000D12CE12CF12C00E010E080E00E94FB00D5
:100730002C2F282B3B2D4C2D5D2D6E2D7F2D802FAA
:10074000912F08E00E94670BC22FB32EC42ED52E26
:10075000E62EF72E082F192FDF5FDA11E6CF08C03B
:10076000C0E0B12CC12CD12CE12CF12C00E010E028
:10077000409A2C2F3B2D4C2D5D2D6E2D7F2D802FE3
:10078000912F08E00E94820BDF91CF911F910F9172
:10079000FF90EF90DF90CF90BF90AF90089541E031
:1007A00067E10E947B03822F8270089541E067E138
:1007B0000E947B03822F817008959F92AF92BF9217
:1007C000CF92DF92EF92FF920F931F93CF93DF931D
:1007D000C22FD32FB42EA52E4098862F80620E9460
:1007E000FB00982ECC20D1F0D12C8E2D0E94FB0046
:1007F0002E2D3F2D402F512F6C2F7D2F8B2D9A2D7D
:1008000008E00E94820BE22EF32E042F152FC62F34
:10081000D72FB82EA92ED394DC10E7CF409A892D7C
:10082000DF91CF911F910F91FF90EF90DF90CF90CC
:10083000BF90AF909F900895CF92EF92FF920F9349
:100840001F93CF93DF93EC01E62E41E060E00E941E
:100850007B032D7FEE0CE22AEB82CC24C394F12C97
:1008600000E010E020E030E040E050E060E0CE0149
:100870000E94DD03DF91CF911F910F91FF90EF90C8
:10088000CF900895AF92BF92CF92DF92EF92FF92F6
:100890000F931F93CF93DF93EC01D62E41E060E0DE
:1008A0000E947B032B8301E030E040E050E060E0F9
:1008B00070E080E090E00E9462038B818E7FED2CDF
:1008C000E82AEB82CC24C394F12C00E010E020E075
:1008D00030E040E050E060E0CE010E94DD03DD202A
:1008E00029F08DED90E00E94F40204C087EB90E0C7
:1008F0000E94F40241E060E0CE010E947B03AB80E5
:10090000B12CC12CD12CE12CF12C00E010E00E9484
:10091000AA0B29F081E890E00E94F40204C088E666
:1009200090E00E94F402DF91CF911F910F91FF9010
:10093000EF90DF90CF90BF90AF900895CF92EF925D
:10094000FF920F931F93CF93DF93EC01E62E41E0CC
:100950006DE10E947B032D7FEE0CE22AEB82CC241A
:10096000C394F12C00E010E020E030E040E050E0E3
:100970006DE1CE010E94DD03DF91CF911F910F91B8
:10098000FF90EF90CF900895CF92EF92FF920F9348
:100990001F93CF93DF93EC01E62E41E06DE10E94BF
:1009A0007B032B7FEE0CEE0CE22AEB82CC24C3946B
:1009B000F12C00E010E020E030E040E050E06DE19C
:1009C000CE010E94DD03DF91CF911F910F91FF9027
:1009D000EF90CF900895AF92BF92CF92EF92FF9297
:1009E0000F931F93CF93DF93663048F5C42FD62F14
:1009F0005C0141E06CE10E947B0381E090E00D2E00
:100A000002C0880F991F0A94E2F7809582234C2F29
:100A100050E002C0440F551FDA95E2F7E82EE42AB1
:100A2000F501E382CC24C394F12C00E010E020E037
:100A300030E040E050E06CE1C5010E94DD03DF9151
:100A4000CF911F910F91FF90EF90CF90BF90AF90FB
:100A50000895CF92EF92FF920F931F93CF93DF935E
:100A6000EC01E62E41E066E00E947B03277FEE0C5E
:100A7000EE0CEE0CE22AEB82CC24C394F12C00E0C5
:100A800010E020E030E040E050E066E0CE010E945F
:100A9000DD03DF91CF911F910F91FF90EF90CF90E9
:100AA0000895CF92EF92FF920F931F930F2EF5E0D0
:100AB000CF2EF02DE02EF12E022F132F242F352FC5
:100AC000462F572F60E10E94DD031F910F91FF9089
:100AD000EF90CF900895CF92EF92FF920F931F93D4
:100AE0000F2EF5E0CF2EF02DE02EF12E022F132F3A
:100AF000242F352F462F572F6AE00E94DD031F91C8
:100B00000F91FF90EF90CF900895CF92EF92FF92C8
:100B10000F931F93CF93DF93EC01389A399A419A40
:100B2000579A1A8285E291E00E94F402288130E00F
:100B300040E050E060E070E080E090E00E94580209
:100B400082E091E00E94F402298130E040E050E030
:100B500060E070E080E090E00E94580205EB1AEB44
:100B60002AEB3AEB4AEB50E060E070E0CE010E94E5
:100B700051052AEB3AEB4AEB50E060E070E0CE0121
:100B80000E946B0561E0CE010E9429056F81CE01B4
:100B90000E9442048885882399F0CE010E946C034C
:100BA00061E0CE010E94C40441E060E0CE010E94F9
:100BB000EB0461E0CE010E949E04888581110EC085
:100BC000E880CC24C394F12C00E010E020E030E079
:100BD00040E050E061E1CE010E94DD0361E0CE0122
:100BE0000E941C04DF91CF911F910F91FF90EF9015
:100BF000CF9008953FEF51EE74E031505040704077
:100C0000E1F700C00000FC01278321E0208760831A
:100C100041830E948505089562EE0E947503089540
:100C20009F92AF92BF92CF92DF92EF92FF920F937B
:100C30001F93CF93DF935C01D62E972ECC24C394C1
:100C40006894EE24E6F8F12C00E010E020E030E0BB
:100C500040E050E067E00E94DD03409881E60E949A
:100C6000FB00F5018081882361F0CD2DD92D80E036
:100C70000E94FB0089932C2F2D19F50190812917D3
:100C8000B0F3409AC5010E94CF03882319F0C50133
:100C90000E940C06DF91CF911F910F91FF90EF9072
:100CA000DF90CF90BF90AF909F90089508951092DD
:100CB000AE0186E596E090939D0180939C01089596
:100CC00090939D0180939C010895CF93DF93EC0155
:100CD0001BA21CA20E944909CE010E9429098C8DE9
:100CE000811104C08091A8018823C9F08091A901D5
:100CF000882361F081E00E94D000E0919E01F09194
:100D00009F01309761F08EA1099509C081E00E9492
:100D1000D000EE85FF85309711F08EA10995DF9107
:100D2000CF910895CF93DF939091AE019923C1F0B5
:100D3000D82FC0E0EC2FF0E0EE0FFF1FE155FE4F83
:100D40000190F081E02D91A59D1305C0309719F019
:100D5000CF010E946506CF5F9091AE01C91750F395
:100D6000DF91CF91089583B1EAEAF1E0808386B103
:100D7000818389B182830895FC0180A5813049F087
:100D800018F0823059F00EC08091AA018093AD0115
:100D900009C08091AB018093AD0104C08091AC018A
:100DA0008093AD01828D81A32091AD0130E007A039
:100DB00002C0359527950A94E2F72170228F089595
:100DC000CF93DF93EC010E94BC068A8D811120C075
:100DD00089A1882309F478C08BA1811108C024EF70
:100DE00037E040E06CEB72E0CE010E941B0981E02D
:100DF0008AA38BA1882341F068E572E0CE010E94AE
:100E0000360981E08CA31BA28A8D882309F45CC07B
:100E100089A1811159C08CA1811106C0CE010E9407
:100E20002E099DA78CA705C0CE010E9441099DA750
:100E30008CA7CE010E944909CE010E9429091AA25D
:100E40008CA59DA50B978D34924098F58CA18111AE
:100E500017C08DA181112FC08F8D882359F022E9F1
:100E600036E040E064E670E0CE010E941B0981E0BC
:100E70008BA303C0CE010E9465068CA1882309F1D3
:100E80008091A901882361F081E00E94D000E09167
:100E9000A401F091A501309761F08EA1099509C0D8
:100EA00081E00E94D000EA89FB89309711F08EA181
:100EB00009958DA181111DA28CA1882329F01CA266
:100EC00003C08DA18111F7CFDF91CF910895CF930A
:100ED0008091AE01882391F0C0E0EC2FF0E0EE0F9E
:100EE000FF1FE155FE4F80819181009711F00E9414
:100EF000E006CF5F8091AE01C81778F3CF910895D7
:100F0000CF93DF93EC0118A21BA21CA28DA1882312
:100F100089F1CE010E94B306CE010E94BC068A8DE3
:100F2000811128C08E8D811104C08091A601882373
:100F300009F124EF37E040E066E470E0CE010E9462
:100F40001B098091A901882361F081E00E94D000F3
:100F5000E091A001F091A101309761F08EA1099577
:100F600009C081E00E94D000EC89FD89309711F022
:100F70008EA109958AA18823A1F1CE010E94B30612
:100F8000CE010E94BC068A8D81112BC08D8D8111EE
:100F900004C08091A701882321F11AA281E08DA3CA
:100FA00024EF37E040E062E370E0CE010E941B09CD
:100FB0008091A901882361F081E00E94D000E09136
:100FC000A201F091A301309761F08EA1099509C0AB
:100FD00081E00E94D000E889F989309711F08EA154
:100FE0000995DF91CF910895CF93DF939091AE0152
:100FF0009923C1F0D82FC0E0EC2FF0E0EE0FFF1FD7
:10100000E155FE4F0190F081E02D91A59D1305C0A3
:10101000309719F0CF010E948007CF5F9091AE0109
:10102000C91750F3DF91CF9108951F920F920FB619
:101030000F9211242F933F934F935F936F937F935E
:101040008F939F93AF93BF93EF93FF9383B1EAEA9C
:10105000F1E0808386B1818389B182830E94CD00D3
:1010600080E00E94D0000E946707FF91EF91BF913E
:10107000AF919F918F917F916F915F914F913F9130
:101080002F910F900FBE0F901F9018951F920F92E7
:101090000FB60F9211242F933F934F935F936F934B
:1010A0007F938F939F93AF93BF93EF93FF930E9490
:1010B000CD0080E00E94D0000E946707FF91EF9171
:1010C000BF91AF919F918F917F916F915F914F9160
:1010D0003F912F910F900FBE0F901F9018951F9268
:1010E0000F920FB60F9211242F933F934F935F935C
:1010F0006F937F938F939F93AF93BF93EF93FF93E0
:1011000083B1EAEAF1E0808386B1818389B1828389
:101110000E94CD0080E00E94D0000E946707FF91EE
:10112000EF91BF91AF919F918F917F916F915F915F
:101130004F913F912F910F900FBE0F901F901895D8
:101140001F920F920FB60F9211242F933F934F933C
:101150005F936F937F938F939F93AF93BF93EF931F
:10116000FF9383B1EAEAF1E0808386B1818389B19C
:1011700082830E94CD0080E00E94D0000E94670719
:10118000FF91EF91BF91AF919F918F917F916F915F
:101190005F914F913F912F910F900FBE0F901F9035
:1011A00018951F920F920FB60F9211242F933F9311
:1011B0004F935F936F937F938F939F93AF93BF935F
:1011C000EF93FF9383B1EAEAF1E0808386B18183F4
:1011D00089B182830E94CD0080E00E94D0000E94ED
:1011E0006707FF91EF91BF91AF919F918F917F9191
:1011F0006F915F914F913F912F910F900FBE0F9084
:101200001F90189560E87EE381E00E940101109232
:10121000BB010895DC019091BB01E92FF0E0EE0FD6
:10122000FF1FEC53FE4FB183A08315969C939F5FE5
:101230009093BB010895FC01718360837383628383
:101240003587248781E08387448380E00E94D00033
:101250000895FC011386118210820895FC01828199
:10126000938120813181821B930B0895FC01778348
:10127000668381E082877187608780E00E94D0006A
:101280000895FC018085918526813781821B930B0F
:101290000895FC011782168212860895CF93DF937A
:1012A000EC018B858823E1F088819981009729F0F2
:1012B000019799838883892B99F48C81813029F453
:1012C0008A819B819983888305C0811103C01B8615
:1012D00019821882EC85FD85309711F08D81099572
:1012E0008A85882351F08E819F81009729F001978C
:1012F0009F838E83892B09F41A86DF91CF910895FD
:10130000CF938091BB01882391F0C0E0EC2FF0E0F7
:10131000EE0FFF1FEC53FE4F80819181009711F07B
:101320000E944E09CF5F8091BB01C81778F3CF911F
:1013300008951F920F920FB60F9211242F933F938F
:101340004F935F936F937F938F939F93AF93BF93CD
:10135000EF93FF930E94E8012091BC013091BD0101
:101360004091BE015091BF016091C0017091C101D7
:101370008091C2019091C301A1E00E949E0B209335
:10138000BC013093BD014093BE015093BF016093F7
:10139000C0017093C1018093C2019093C3010E9468
:1013A0008009FF91EF91BF91AF919F918F917F91B4
:1013B0006F915F914F913F912F910F900FBE0F90C2
:1013C0001F90189581E0809303020895CF93C82F52
:1013D00080E091E00E940D03C13049F460E081E0BB
:1013E0000E94B201482F62E081E00E941001CF917B
:1013F000089580E090E00E94D50160ED77E082E002
:101400000E94010141E062E081E00E94610141E04F
:1014100062E082E00E94610141E063E082E00E94BC
:10142000610140E064E082E00E94610141E065E02A
:1014300082E00E94610140E062E082E00E941001CF
:1014400040E063E082E00E94100140E064E082E05E
:101450000E94100140E065E082E00E94100140E03F
:1014600062E081E00E94100140E060E081E00E94C3
:1014700061010E94D3000895CF93DF93CDB7DEB70B
:1014800067970FB6F894DEBF0FBECDBF0E94F90973
:101490002FEF89E698E1215080409040E1F700C0AD
:1014A00000008DE491E00E94F40221E041E061E05F
:1014B000CE010F960E94FA0561E0CE010F960E94C0
:1014C0001C040E94DC0081E00E94F10078940E94DC
:1014D000570686EE99E00E9460060E940209CE013E
:1014E00001960E940A0922EE39E040E064E670E0CD
:1014F000CE0101960E941B0988E491E00E94F4024B
:1015000080910402882309F465C01092040280913E
:1015100005028A3A61F160910502607F70E075957D
:1015200067957595679575956795759567956093BA
:101530000202809105028F708093010241E08111C7
:1015400001C040E06F5F82E00E94100182E191E003
:101550000E940D032091050201E030E040E050E0E0
:1015600060E070E080E090E00E9462032CC080E0C8
:101570000E94F10080E00E94E7000E94D300CE01AB
:101580000F960E94D603811116C060E072E0CE0172
:101590000F960E94100685E291E00E940D032091B3
:1015A000000201E030E040E050E060E070E080E008
:1015B00090E00E94620380E00E94E7000E94DC004D
:1015C00081E00E94F10089B190E09595879595950D
:1015D00087958EBD80910302882309F491CF1092E4
:1015E000030285E391E00E940D038ACF1F920F92C0
:1015F0000FB60F9211248F938EB58093050281E070
:10160000809304028F910F900FBE0F901F9018953A
:10161000689401C0E8948F929F92CF93DF930E94C9
:10162000160BDF91CF919F908F9008958824992475
:10163000F401E401B0E49F93AA279A158B049C045B
:10164000ED05FE05CF05D007A10798F4AD2FDC2FDF
:10165000CF2FFE2FE92D982C892E982F872F762FAC
:10166000652F542F432F322F2227B85031F7BF91C7
:1016700027C01B2EBF91BB27220F331F441F551FAE
:10168000661F771F881F991F881C991CEE1FFF1F5C
:10169000CC1FDD1FAA1FBB1F8A149B04EC05FD0590
:1016A000CE05DF05A007B10748F08A189B08EC09B2
:1016B000FD09CE09DF09A00BB10B21601A94E1F6F8
:1016C0002EF49401AF01BE01CD01000C08950F93DB
:1016D000083090F0982F872F762F652F542F432FA7
:1016E000322F22270850F4CF220F331F441F551FDB
:1016F000661F771F881F991F0A95B2F70F910895EB
:1017000097FB10F8169400080F93083098F00850D3
:10171000232F342F452F562F672F782F892F902D69
:10172000F4CF059497958795779567955795479545
:10173000379527950A95AAF70F9108950024A7FDDC
:1017400000942A0F301D401D501D601D701D801D0E
:10175000901D08952A153B054C055D056E057F0516
:101760008007910708950024A7FD00942A173005EB
:101770004005500560057005800590050895F894B2
:02178000FFCF99
:1017820050696E207374617465206368616E676569
:101792006400436F6D6D616E642072656365697686
:1017A20065643A20004461746120726563656976FC
:1017B20065643A200054696D657220646F6E652E0F
:0217C200000025
:00000001FF
