:100000000C94AE000C94D6080C9407090C9430099B
:100010000C9461090C9492090C9455020C94CB0039
:100020000C94CB000C94CB000C94CB000C945E0A87
:100030000C94CB000C94CB000C94CB000C94CB0014
:100040000C94CB000C94730C0C94CB000C94CB0050
:100050000C94CB000C94CB000C94CB000C94CB00F4
:100060000C94CB000C94CB00496E697469616C6987
:100070007A696E67207375636365737366756C2E3A
:1000800000496E697469616C697A6174696F6E2088
:100090006661696C656420666F72206E5246323408
:1000A0004C30312E20436865636B20636F6E6E6544
:1000B0006374696F6E73005374617274696E672044
:1000C0006E524632344C303120696E205472616E6B
:1000D000736D6974204D6F64652E2E2E005374610C
:1000E0007274696E67206E524632344C303120692A
:1000F0006E2052656365697665204D6F64652E2EAE
:100100002E004D6173746572205258205061796CD5
:100110006F6164206C656E67746820736574207409
:100120006F203A20004D617374657220545820503E
:1001300061796C6F6164206C656E677468207365AB
:100140007420746F203A2000446F6E6500506F7702
:100150006572696E67206F6E2E2E2E0011241FBEF1
:10016000CFEFD8E0DEBFCDBF11E0A0E0B1E0ECE71B
:10017000FAE102C005900D92A633B107D9F722E04B
:10018000A6E3B1E001C01D92A43CB207E1F70E94D2
:100190003A0B0C943C0D0C940000109264000895EE
:1001A000809336010895249884B18C6284B92A9A88
:1001B0008CB581658CBD8DB581608DBD089584B190
:1001C000837D84B9249A8CB58F7E8CBD8CB5806478
:1001D0008CBD0895882321F08CB580648CBD089572
:1001E0008CB58F7B8CBD0895882321F08CB58068F9
:1001F0008CBD08958CB58F778CBD08958EBD0DB4E0
:1002000007FEFDCF8EB50895709389006093880036
:1002100010928000877088608093810082E08093D4
:100220006F00789408958130E9F018F0823099F1E8
:100230000895442359F025B181E090E002C0880F71
:10024000991F6A95E2F7822B85B9089525B181E05F
:1002500090E002C0880F991F6A95E2F7809582238B
:1002600085B90895442359F028B181E090E002C097
:10027000880F991F6A95E2F7822B88B9089528B1F3
:1002800081E090E002C0880F991F6A95E2F780959F
:10029000822388B90895442359F02BB181E090E07E
:1002A00002C0880F991F6A95E2F7822B8BB90895D7
:1002B0002BB181E090E002C0880F991F6A95E2F7A8
:1002C000809582238BB908958130E9F018F082304F
:1002D00099F10895442359F024B181E090E002C0DF
:1002E000880F991F6A95E2F7822B84B9089524B18B
:1002F00081E090E002C0880F991F6A95E2F780952F
:10030000822384B90895442359F027B181E090E015
:1003100002C0880F991F6A95E2F7822B87B908956A
:1003200027B181E090E002C0880F991F6A95E2F73B
:100330008095822387B90895442359F02AB181E03A
:1003400090E002C0880F991F6A95E2F7822B8AB964
:1003500008952AB181E090E002C0880F991F6A9544
:10036000E2F7809582238AB90895E8E6F0E090816B
:1003700021E030E0082E02C0220F331F0A94E2F77A
:10038000292B2083813081F018F08230C9F0089544
:10039000EBE6F0E0808150E002C0440F551F6A9503
:1003A000E2F7482B40830895ECE6F0E0808150E0CE
:1003B00002C0440F551F6A95E2F7482B4083089509
:1003C000EDE6F0E0808150E002C0440F551F6A95D1
:1003D000E2F7482B40830895813069F018F08230AD
:1003E00099F01BC083B190E002C0959587956A95FE
:1003F000E2F78170089586B190E002C095958795E7
:100400006A95E2F78170089589B190E002C09595F0
:1004100087956A95E2F78170089580E0089590933A
:10042000C5008093C40088E18093C1008EE0809372
:10043000C2000895E0ECF0E0908195FFFDCF80933D
:10044000C60008952091390130913A0140913B0155
:1004500050913C0160913D0170913E0180913F01BE
:1004600090914001A1E00E941B0D2093390130932F
:100470003A0140933B0150933C0160933D017093DE
:100480003E0180933F01909340018091370190910C
:100490003801892B49F080913701909138010197FB
:1004A000909338018093370108951F920F920FB6F1
:1004B0000F9211248F9384B78E7F84BF8F910F90FA
:1004C0000FBE0F901F9018950F93E2E8F1E0AAE895
:1004D000B1E0219308E00E94FF0CEA17FB07C9F77F
:1004E00082E891E00F9108958A3010F0895C0895B8
:1004F000805D08951F93CF93DF93182F82958F709F
:100500000E947402CAE8D1E08883812F8F708093A3
:100510008F010E94740289831A82CE01DF91CF91EC
:100520001F9108952F923F924F925F926F927F9208
:100530008F929F92AF92BF92CF92DF92EF92FF92F3
:100540000F931F93CF93DF93CDB7DEB7C756D10973
:100550000FB6F894DEBF0FBECDBFA6962FAFA697FD
:10056000832E742E652E562E472E382E292EA0E06F
:100570000E94300D21F480E30E941A0252C0912C97
:1005800081E090E08C0F9D1F890D911DA8969FAF73
:100590008EAFA8970F2EFAE0AF2EF02DB12CC12C04
:1005A000D12CE12CF12C00E010E0A6962FADA697FF
:1005B000382D472D562D652D742D832D922D0E949B
:1005C000850C205DA896EEADFFADA8972083A6967A
:1005D0002FADA697382D472D562D652D742D832DC3
:1005E000922D0E94870CA6962FAFA697832E742E6D
:1005F000652E562E472E382E292E9394A0E00E9469
:10060000300D09F0BDCF992061F09A94E1E0F0E05F
:10061000EC0FFD1FE90DF11D80810E941A0291105F
:10062000F4CF80E20E941A02C959DF4F0FB6F89446
:10063000DEBF0FBECDBFDF91CF911F910F91FF9015
:10064000EF90DF90CF90BF90AF909F908F907F9072
:100650006F905F904F903F902F900895CF93DF93CE
:10066000EC018DE00E941A028AE00E941A02FE014B
:100670008491882349F0FE0184910E941A022196F8
:10068000FE0184918111F7CFDF91CF910895CF932F
:10069000DF93EC018DE00E941A028AE00E941A02A8
:1006A0008881882331F021960E941A028991811154
:1006B000FBCFDF91CF910895CF93DF93EC01888139
:1006C000882331F021960E941A0289918111FBCF73
:1006D000DF91CF910895FF920F931F93CF93DF93F4
:1006E000F62E062F10E001501109080F191F80E3A4
:1006F0000E941A0288E70E941A02FF2081F0E80196
:1007000021968FEF8F0D081B11098A91809381012B
:100710000E947A020E945C03C017D107B1F7EF2D47
:10072000F0E0EF5BFE4F128281E491E0DF91CF9128
:100730001F910F91FF9008950F930E946402602F04
:100740000E946B030E945C030F910895409880E51E
:100750000E94FE0083E70E94FE00409A0895862FC3
:1007600040980E94FE00409A0895AF92BF92CF92A7
:10077000DF92EF92FF920F931F93CF93DF93862F19
:10078000A42E40980E94FE00AA2021F1D0E0C0E0F3
:10079000B12CC12CD12CE12CF12C00E010E080E038
:1007A0000E94FE002C2F282B3B2D4C2D5D2D6E2DF5
:1007B0007F2D802F912F08E00E94E40CC22FB32ED2
:1007C000C42ED52EE62EF72E082F192FDF5FDA1153
:1007D000E6CF08C0C0E0B12CC12CD12CE12CF12C0B
:1007E00000E010E0409A2C2F3B2D4C2D5D2D6E2DFE
:1007F0007F2D802F912F08E00E94FF0CDF91CF9179
:100800001F910F91FF90EF90DF90CF90BF90AF902E
:10081000089541E067E10E94B503822F8270089538
:100820000F9341E067E00E94B50306E00E94FF0CD1
:10083000822F81700F9108959F92AF92BF92CF92B5
:10084000DF92EF92FF920F931F93CF93DF93C22F0C
:10085000D32FB42EA52E4098862F80620E94FE00D2
:10086000982ECC20D1F0D12C8E2D0E94FE002E2D62
:100870003F2D402F512F6C2F7D2F8B2D9A2D08E06F
:100880000E94FF0CE22EF32E042F152FC62FD72F18
:10089000B82EA92ED394DC10E7CF409A892DDF9192
:1008A000CF911F910F91FF90EF90DF90CF90BF906D
:1008B000AF909F900895CF92EF92FF920F931F9366
:1008C000CF93DF93EC01E62E41E060E00E94B50398
:1008D0002D7FEE0CE22AEB82CC24C394F12C00E0B5
:1008E00010E020E030E040E050E060E0CE010E9407
:1008F0001C04DF91CF911F910F91FF90EF90CF904B
:100900000895AF92BF92CF92DF92EF92FF920F9332
:100910001F93CF93DF93EC01D62E41E060E00E945D
:10092000B5032B8301E030E040E050E060E070E090
:1009300080E090E00E949C038B818E7FED2CE82A62
:10094000EB82CC24C394F12C00E010E020E030E0F6
:1009500040E050E060E0CE010E941C04DD2029F060
:100960008DED90E00E942E0304C087EB90E00E9482
:100970002E0341E060E0CE010E94B503AB80B12CB4
:10098000C12CD12CE12CF12C00E010E00E94270DAD
:1009900029F081E890E00E942E0304C088E690E0F0
:1009A0000E942E03DF91CF911F910F91FF90EF9046
:1009B000DF90CF90BF90AF900895CF92EF92FF92CB
:1009C0000F931F93CF93DF93EC01E62E41E06DE18F
:1009D0000E94B5032D7FEE0CE22AEB82CC24C39457
:1009E000F12C00E010E020E030E040E050E06DE16C
:1009F000CE010E941C04DF91CF911F910F91FF90B7
:100A0000EF90CF900895CF92EF92FF920F931F93A4
:100A1000CF93DF93EC01E62E41E06DE10E94B50338
:100A20002B7FEE0CEE0CE22AEB82CC24C394F12C4B
:100A300000E010E020E030E040E050E06DE1CE0169
:100A40000E941C04DF91CF911F910F91FF90EF90B6
:100A5000CF900895AF92BF92CF92EF92FF920F93F3
:100A60001F93CF93DF93663048F5C42FD62F5C01D8
:100A700041E06CE10E94B50381E090E00D2E02C0E0
:100A8000880F991F0A94E2F7809582234C2F50E03B
:100A900002C0440F551FDA95E2F7E82EE42AF5016B
:100AA000E382CC24C394F12C00E010E020E030E09D
:100AB00040E050E06CE1C5010E941C04DF91CF9141
:100AC0001F910F91FF90EF90CF90BF90AF9008953E
:100AD000CF92EF92FF920F931F93CC24C39468940C
:100AE000EE24E6F8F12C00E010E020E030E040E0F9
:100AF00050E067E00E941C041F910F91FF90EF905F
:100B0000CF900895CF92EF92FF920F931F93CF93C0
:100B1000DF93EC01E62E41E066E00E94B503277FFB
:100B2000EE0CEE0CEE0CE22AEB82CC24C394F12CFA
:100B300000E010E020E030E040E050E066E0CE0170
:100B40000E941C04DF91CF911F910F91FF90EF90B5
:100B5000CF900895CF92EF92FF920F931F930F2E95
:100B6000F5E0CF2EF02DE02EF12E022F132F242FA3
:100B7000352F462F572F60E10E941C041F910F91C3
:100B8000FF90EF90CF900895CF92EF92FF920F9346
:100B90001F930F2EF5E0CF2EF02DE02EF12E022F19
:100BA000132F242F352F462F572F6AE00E941C0445
:100BB0001F910F91FF90EF90CF900895CF92EF92F9
:100BC000FF920F931F93CF93DF93EC01389A399ADA
:100BD000419A579A1A8285E291E00E942E03288159
:100BE00030E040E050E060E070E080E090E00E94A3
:100BF000920282E091E00E942E03298130E040E0E1
:100C000050E060E070E080E090E00E94920205EB2E
:100C10001AEB2AEB3AEB4AEB50E060E070E0CE01D1
:100C20000E94AA052AEB3AEB4AEB50E060E070E044
:100C3000CE010E94C405CC24C394E12CF12C00E029
:100C400010E020E030E040E050E064E0CE010E949F
:100C50001C0461E0CE010E9482056F81CE010E94DA
:100C600081048885882381F0CE010E94A60361E07B
:100C7000CE010E94030541E060E0CE010E942A05FA
:100C800061E0CE010E94DD0461E0CE010E945B04C0
:100C9000DF91CF911F910F91FF90EF90CF9008952A
:100CA0003FEF51EE74E0315050407040E1F700C02A
:100CB0000000FC01278321E02087608341830E949C
:100CC000DE05089562EE0E94AF0308959F92AF92F1
:100CD000BF92CF92DF92EF92FF920F931F93CF9329
:100CE000DF935C01D62E972ECC24C3946894EE2417
:100CF000E6F8F12C00E010E020E030E040E050E0C9
:100D000067E00E941C04409881E60E94FE00F50105
:100D10008081882361F0CD2DD92D80E00E94FE00D6
:100D200089932C2F2D19F50190812917B0F3409A42
:100D3000C5010E940904882319F0C5010E946206BA
:100D4000DF91CF911F910F91FF90EF90DF90CF90A7
:100D5000BF90AF909F90089508951092A3018CEAE0
:100D600096E090939101809390010895FC0177871C
:100D70006687709393016093920121E0248F089518
:100D8000CF93DF93EC011BA21CA20E940B0ACE01A1
:100D90000E94EB098C8D811104C080919D018823F4
:100DA000C9F080919E01882361F081E00E94D0000B
:100DB000E0919201F0919301309761F08EA1099535
:100DC00009C081E00E94D000EE85FF85309711F0C8
:100DD0008EA10995DF91CF910895CF93DF939091E4
:100DE000A3019923C1F0D82FC0E0EC2FF0E0EE0F63
:100DF000FF1FEC55FE4F0190F081E02D91A59D1352
:100E000005C0309719F0CF010E94C006CF5F9091C6
:100E1000A301C91750F3DF91CF91089580939E01EC
:100E200080939D0180939C0180939B0180939A0104
:100E3000089583B1EFE9F1E0808386B1818389B1C0
:100E400082830895FC0180A5813049F018F082303A
:100E500059F00EC080919F018093A20109C080913A
:100E6000A0018093A20104C08091A1018093A201FE
:100E7000828D81A32091A20130E007A002C03595A8
:100E800027950A94E2F72170228F0895EF92FF923E
:100E90000F931F93CF93DF93EC01F62EE42E89017D
:100EA0001F861E861B8A1A8A198A188A1D8A1C8A1E
:100EB0001F8A1E8A198E188E0E94CC09EFA2F8A6EE
:100EC00040E06E2D8F2D0E94640141E06FA188A546
:100ED0000E94130141E06E2D8F2D0E94B50188A55F
:100EE000813041F018F0823049F00BC083B180931B
:100EF000A20107C086B18093A20103C089B180938B
:100F0000A2018091A301E82FF0E0EE0FFF1FEC5546
:100F1000FE4F118300838EA38F5F8093A301CE01C8
:100F20000E941907CE010E9422071F8ECE010E9447
:100F30005B0A89A7DF91CF911F910F91FF90EF90EE
:100F40000895CF93DF93EC010E9422078A8D8111CF
:100F500020C089A1882309F478C08BA1811108C021
:100F600025EB38E040E06CEB72E0CE010E94DD0939
:100F700081E08AA38BA1882341F068E572E0CE016D
:100F80000E94F80981E08CA31BA28A8D882309F4B2
:100F90005CC089A1811159C08CA1811106C0CE010C
:100FA0000E94F0099DA78CA705C0CE010E94030AEC
:100FB0009DA78CA7CE010E940B0ACE010E94EB09CF
:100FC0001AA28CA59DA50B978D34924098F58CA103
:100FD000811117C08DA181112FC08F8D882359F0E9
:100FE0002DEE36E040E064E670E0CE010E94DD09BF
:100FF00081E08BA303C0CE010E94C0068CA1882390
:1010000009F180919E01882361F081E00E94D00067
:10101000E0919801F0919901309761F08EA10995C6
:1010200009C081E00E94D000EA89FB89309711F065
:101030008EA109958DA181111DA28CA1882329F073
:101040001CA203C08DA18111F7CFDF91CF9108952C
:10105000CF938091A301882391F0C0E0EC2FF0E0C2
:10106000EE0FFF1FEC55FE4F80819181009711F02C
:101070000E94A107CF5F8091A301C81778F3CF9199
:101080000895CF93DF93EC0118A21BA21CA28DA19F
:10109000882389F1CE010E941907CE010E94220700
:1010A0008A8D811128C08E8D811104C080919A0192
:1010B000882309F125EB38E040E066E470E0CE01DA
:1010C0000E94DD0980919E01882361F081E00E94E9
:1010D000D000E0919401F0919501309761F08EA1DC
:1010E000099509C081E00E94D000EC89FD89309704
:1010F00011F08EA109958AA18823A1F1CE010E9449
:101100001907CE010E9422078A8D81112BC08D8D77
:10111000811104C080919B01882321F11AA281E0F2
:101120008DA325EB38E040E062E370E0CE010E9441
:10113000DD0980919E01882361F081E00E94D0004A
:10114000E0919601F0919701309761F08EA1099599
:1011500009C081E00E94D000E889F989309711F038
:101160008EA10995DF91CF910895CF93DF93909150
:10117000A3019923C1F0D82FC0E0EC2FF0E0EE0FCF
:10118000FF1FEC55FE4F0190F081E02D91A59D13BE
:1011900005C0309719F0CF010E944108CF5F9091B0
:1011A000A301C91750F3DF91CF9108951F920F92B9
:1011B0000FB60F9211242F933F934F935F936F932A
:1011C0007F938F939F93AF93BF93EF93FF9383B1DD
:1011D000EFE9F1E0808386B1818389B182830E9447
:1011E000CD0080E00E94D0000E942808FF91EF917E
:1011F000BF91AF919F918F917F916F915F914F912F
:101200003F912F910F900FBE0F901F9018951F9236
:101210000F920FB60F9211242F933F934F935F932A
:101220006F937F938F939F93AF93BF93EF93FF93AE
:101230000E94CD0080E00E94D0000E942808FF910B
:10124000EF91BF91AF919F918F917F916F915F913E
:101250004F913F912F910F900FBE0F901F901895B7
:101260001F920F920FB60F9211242F933F934F931B
:101270005F936F937F938F939F93AF93BF93EF93FE
:10128000FF9383B1EFE9F1E0808386B1818389B177
:1012900082830E94CD0080E00E94D0000E94280836
:1012A000FF91EF91BF91AF919F918F917F916F913E
:1012B0005F914F913F912F910F900FBE0F901F9014
:1012C00018951F920F920FB60F9211242F933F93F0
:1012D0004F935F936F937F938F939F93AF93BF933E
:1012E000EF93FF9383B1EFE9F1E0808386B18183CF
:1012F00089B182830E94CD0080E00E94D0000E94CC
:101300002808FF91EF91BF91AF919F918F917F91AD
:101310006F915F914F913F912F910F900FBE0F9062
:101320001F9018951F920F920FB60F9211242F93B2
:101330003F934F935F936F937F938F939F93AF935D
:10134000BF93EF93FF9383B1EFE9F1E0808386B120
:10135000818389B182830E94CD0080E00E94D00009
:101360000E942808FF91EF91BF91AF919F918F91BB
:101370007F916F915F914F913F912F910F900FBE91
:101380000F901F90189560E87EE381E00E940401B1
:1013900081E08093B0010895DC019091B001E92FC4
:1013A000F0E0EE0FFF1FE754FE4FB183A0831596C8
:1013B0009C939F5F9093B0010895FC0171836083BB
:1013C000738362833587248781E08387448380E049
:1013D0000E94D0000895FC011386118210820895A6
:1013E000FC018281938120813181821B930B0895BE
:1013F000FC017783668381E082877187608780E064
:101400000E94D0000895FC01808591852681378156
:10141000821B930B0895FC01178216821286089591
:10142000CF93DF93EC018B858823E1F0888199814C
:10143000009729F0019799838883892B99F48C81EF
:10144000813029F48A819B819983888305C0811129
:1014500003C01B8619821882EC85FD85309711F038
:101460008D8109958A85882351F08E819F8100970F
:1014700029F001979F838E83892B09F41A86DF91C7
:10148000CF910895CF938091B001882391F0C0E06F
:10149000EC2FF0E0EE0FFF1FE754FE4F80819181AB
:1014A000009711F00E94100ACF5F8091B001C81719
:1014B00078F3CF910895FC01858108951F920F92D2
:1014C0000FB60F9211242F933F934F935F936F9317
:1014D0007F938F939F93AF93BF93EF93FF930E945C
:1014E00022022091B1013091B2014091B30150919B
:1014F000B4016091B5017091B6018091B7019091EE
:10150000B801A1E00E941B0D2093B1013093B201FC
:101510004093B3015093B4016093B5017093B60149
:101520008093B7019093B8010E94420AFF91EF9116
:10153000BF91AF919F918F917F916F915F914F91EB
:101540003F912F910F900FBE0F901F90189591E033
:101550009093BF028093C202089581E08093C002FD
:10156000439943980895823079F018F4813031F02E
:101570000895833079F0843099F00895462F63E020
:1015800082E00E9413010895462F62E082E00E94EB
:1015900013010895462F65E082E00E94130108952B
:1015A000462F64E082E00E9413010895823071F0BA
:1015B00018F4813031F019C0833069F0843081F043
:1015C00014C063E082E00E94EC01089562E082E0D2
:1015D0000E94EC01089565E082E00E94EC0108950C
:1015E00064E082E00E94EC01089580E0089581E0CB
:1015F00090E00E940F0241E062E081E00E946401FD
:1016000041E063E081E00E94640141E062E082E049
:101610000E94640141E063E082E00E94640141E0D5
:1016200064E082E00E94640141E065E082E00E94A3
:10163000640140E062E082E00E94130140E063E068
:1016400082E00E94130140E064E082E00E94130106
:1016500040E065E082E00E94130140E062E081E04A
:101660000E94130140E060E081E00E9464010E945A
:10167000D3000895CF93DF93CDB7DEB729970FB688
:10168000F894DEBF0FBECDBF0E94F70A2FEF89E6A8
:1016900098E1215080409040E1F700C000008DE4C7
:1016A00091E00E942E0321E041E061E0CE0101962D
:1016B0000E94500661E0CE0101960E945B040E94E8
:1016C000DF0081E00E94F40078940E94C3098DEA53
:1016D00092E00E94CC092DEA3AE040E064E670E036
:1016E0008DEA92E00E94DD090E94AD062FE732E00C
:1016F00046E062E0C9010E94460721E532E047E08A
:1017000062E0C9010E94460723E232E040E060E067
:10171000C9010E94460725EF31E041E060E0C901C0
:101720000E94460767EA7AE08FE792E00E94B606D9
:1017300081E00E940E0788E491E00E942E038091D0
:10174000C102882309F4AAC01092C1028091C30289
:101750008A3AA1F18091C302807F90E095958795A8
:101760009595879595958795959587958093BE02D4
:101770002091C3022F702093BD0261E0211101C0AE
:1017800060E00E94B30A439A2DEA3AE040E06EE13D
:1017900070E08DEA92E00E94DD0982E191E00E9412
:1017A00047032091C30201E030E040E050E060E0F8
:1017B00070E080E090E00E949C0350C080E00E94B6
:1017C000F40080E00E94EA000E94D30087EC90E0E1
:1017D0000197F1F700C00000CE0101960E941004AD
:1017E0008823A1F16CEB72E0CE0101960E9466069F
:1017F000CE0101960E946805CE0101960E94620604
:101800008091BC028F5F0E94D60A61E068278091B8
:10181000BC028F5F0E94B30A439A2DEA3AE040E08F
:101820006EE170E08DEA92E00E94DD0985E291E0D0
:101830000E9447032091BC0201E030E040E050E00C
:1018400060E070E080E090E00E949C0380E00E94F5
:10185000EA000E94DF0081E00E94F40081E00E9423
:10186000D60A082F82E00E94D60A182F83E00E9431
:10187000D60A110F24E0829FC0011124212F282BAA
:10188000122F102B84E00E94D60A28E0829FC0010C
:101890001124212F282B2093BB022EBD8091BF0243
:1018A0008823C9F01092BF028091C2028F5F0E940C
:1018B000D60A9091C20261E0682781E0890F0E94F8
:1018C000B30A439A2DEA3AE040E06EE170E08DEA17
:1018D00092E00E94DD098091C002882309F42FCF95
:1018E0001092C0022CCF1F920F920FB60F921124AC
:1018F0008F938EB58093C30281E08093C1028F9154
:101900000F900FBE0F901F901895689401C0E89437
:101910008F929F92CF93DF930E94930CDF91CF9190
:101920009F908F90089588249924F401E401B0E4F5
:101930009F93AA279A158B049C04ED05FE05CF05FD
:10194000D007A10798F4AD2FDC2FCF2FFE2FE92D64
:10195000982C892E982F872F762F652F542F432F61
:10196000322F2227B85031F7BF9127C01B2EBF91CD
:10197000BB27220F331F441F551F661F771F881F69
:10198000991F881C991CEE1FFF1FCC1FDD1FAA1F6B
:10199000BB1F8A149B04EC05FD05CE05DF05A007DF
:1019A000B10748F08A189B08EC09FD09CE09DF0948
:1019B000A00BB10B21601A94E1F62EF49401AF0153
:1019C000BE01CD01000C08950F93083090F0982FC0
:1019D000872F762F652F542F432F322F2227085021
:1019E000F4CF220F331F441F551F661F771F881F18
:1019F000991F0A95B2F70F91089597FB10F8169466
:101A000000080F93083098F00850232F342F452FEB
:101A1000562F672F782F892F902DF4CF0594979507
:101A200087957795679557954795379527950A95A3
:101A3000AAF70F9108950024A7FD00942A0F301DE6
:101A4000401D501D601D701D801D901D08952A159C
:101A50003B054C055D056E057F05800791070895E0
:101A60000024A7FD00942A173005400550056005A5
:0C1A70007005800590050895F894FFCFE4
:101A7C0050696E207374617465206368616E67656C
:101A8C006400436F6D6D616E642072656365697689
:101A9C0065643A20004461746120726563656976FF
:061AAC0065643A20000011
:00000001FF
