:100000000C94B4000C94B6070C94E7070C941008F9
:100010000C9447080C947E080C941A020C94D1009E
:100020000C94D1000C94D1000C94D1000C944C0988
:100030000C94D1000C94D1000C94D1000C94D100FC
:100040000C94D1000C94690A0C94D1000C94D1004A
:100050000C94D1000C94D1000C94D1000C94D100DC
:100060000C94D1000C94D100496E697469616C697B
:100070007A696E67207375636365737366756C2E3A
:1000800000496E697469616C697A6174696F6E2088
:100090006661696C656420666F72206E5246323408
:1000A0004C30312E20436865636B20636F6E6E6544
:1000B0006374696F6E73005374617274696E672044
:1000C0006E524632344C303120696E205472616E6B
:1000D000736D6974204D6F64652E2E2E005374610C
:1000E0007274696E67206E524632344C303120692A
:1000F0006E2052656365697665204D6F64652E2EAE
:100100002E004D6173746572205258205061796CD5
:100110006F6164206C656E67746820736574207409
:100120006F203A20004D617374657220545820503E
:1001300061796C6F6164206C656E677468207365AB
:100140007420746F203A200054696D657220646FCA
:100150006E6500446F6E6500506F776572696E67FB
:10016000206F6E2E2E2E000011241FBECFEFD8E080
:10017000DEBFCDBF11E0A0E0B1E0E8E6F6E102C0ED
:1001800005900D92A632B107D9F721E0A6E2B1E0C1
:1001900001C01D92A83EB207E1F70E94F0090C943D
:1001A000320B0C9400001092640008958093260195
:1001B0000895249884B18C6284B92A9A8CB581659B
:1001C0008CBD8DB581608DBD089584B1837D84B96A
:1001D000249A8CB58F7E8CBD8CB580648CBD0895BF
:1001E000882321F08CB580688CBD08958CB58F77FD
:1001F0008CBD08958EBD0DB407FEFDCF8EB508955C
:1002000070938900609388001092800087708860E6
:100210008093810082E080936F007894089581300C
:10022000E9F018F0823099F10895442359F025B18E
:1002300081E090E002C0880F991F6A95E2F7822B57
:1002400085B9089525B181E090E002C0880F991F1B
:100250006A95E2F78095822385B90895442359F081
:1002600028B181E090E002C0880F991F6A95E2F7FB
:10027000822B88B9089528B181E090E002C0880FF0
:10028000991F6A95E2F78095822388B908954423DF
:1002900059F02BB181E090E002C0880F991F6A9558
:1002A000E2F7822B8BB908952BB181E090E002C078
:1002B000880F991F6A95E2F7809582238BB908957C
:1002C0008130E9F018F0823099F10895442359F013
:1002D00024B181E090E002C0880F991F6A95E2F78F
:1002E000822B84B9089524B181E090E002C0880F88
:1002F000991F6A95E2F78095822384B90895442373
:1003000059F027B181E090E002C0880F991F6A95EB
:10031000E2F7822B87B9089527B181E090E002C00F
:10032000880F991F6A95E2F78095822387B908950F
:10033000442359F02AB181E090E002C0880F991F50
:100340006A95E2F7822B8AB908952AB181E090E09C
:1003500002C0880F991F6A95E2F7809582238AB9B7
:100360000895813069F018F0823099F01BC083B194
:1003700090E002C0959587956A95E2F7817008959F
:1003800086B190E002C0959587956A95E2F78170F5
:10039000089589B190E002C0959587956A95E2F736
:1003A0008170089580E008959093C5008093C40003
:1003B00088E18093C1008EE08093C2000895E0EC54
:1003C000F0E0908195FFFDCF8093C60008952091C5
:1003D000290130912A0140912B0150912C0160910B
:1003E0002D0170912E0180912F0190913001A1E09B
:1003F0000E94110B2093290130932A0140932B0175
:1004000050932C0160932D0170932E0180932F0146
:10041000909330018091270190912801892B49F018
:100420008091270190912801019790932801809352
:10043000270108951F920F920FB60F9211248F93E8
:1004400084B78E7F84BF8F910F900FBE0F901F9047
:1004500018950F93E2E7F1E0AAE7B1E0219308E0F5
:100460000E94F50AEA17FB07C9F782E791E00F91AE
:1004700008958A3010F0895C0895805D08951F9377
:10048000CF93DF93182F82958F700E943902CAE7AD
:10049000D1E08883812F8F7080937F010E94390281
:1004A00089831A82CE01DF91CF911F9108952F92F7
:1004B0003F924F925F926F927F928F929F92AF92F4
:1004C000BF92CF92DF92EF92FF920F931F93CF9341
:1004D000DF93CDB7DEB7C756D1090FB6F894DEBFAC
:1004E0000FBECDBFA6962FAFA697832E742E652E76
:1004F000562E472E382E292EA0E00E94260B21F4DE
:1005000080E30E94DF0152C0912C81E090E08C0FCB
:100510009D1F890D911DA8969FAF8EAFA8970F2E96
:10052000FAE0AF2EF02DB12CC12CD12CE12CF12C06
:1005300000E010E0A6962FADA697382D472D562D3A
:10054000652D742D832D922D0E947B0A205DA89627
:10055000EEADFFADA8972083A6962FADA697382DB8
:10056000472D562D652D742D832D922D0E947D0AC9
:10057000A6962FAFA697832E742E652E562E472E45
:10058000382E292E9394A0E00E94260B09F0BDCFAF
:10059000992061F09A94E1E0F0E0EC0FFD1FE90D85
:1005A000F11D80810E94DF019110F4CF80E20E9452
:1005B000DF01C959DF4F0FB6F894DEBF0FBECDBFC4
:1005C000DF91CF911F910F91FF90EF90DF90CF902F
:1005D000BF90AF909F908F907F906F905F904F9063
:1005E0003F902F900895CF93DF93EC018DE00E9410
:1005F000DF018AE00E94DF01FE018491882349F037
:10060000FE0184910E94DF012196FE0184918111F7
:10061000F7CFDF91CF910895CF93DF93EC018DE079
:100620000E94DF018AE00E94DF018881882331F087
:1006300021960E94DF0189918111FBCFDF91CF913B
:100640000895CF93DF93EC018881882331F02196C0
:100650000E94DF0189918111FBCFDF91CF91089535
:10066000FF920F931F93CF93DF93F62E062F10E088
:1006700001501109080F191F80E30E94DF0188E76C
:100680000E94DF01FF2081F0E80121968FEF8F0D9E
:10069000081B11098A91809371010E943F020E94F8
:1006A0002103C017D107B1F7EF2DF0E0EF5CFE4F4B
:1006B000128281E391E0DF91CF911F910F91FF9022
:1006C00008950F930E942902602F0E9430030E9418
:1006D00021030F910895409880E50E94FA0083E776
:1006E0000E94FA00409A0895AF92BF92CF92DF9293
:1006F000EF92FF920F931F93CF93DF93862FA42E39
:1007000040980E94FA00AA2021F1D0E0C0E0B12C6C
:10071000C12CD12CE12CF12C00E010E080E00E94F3
:10072000FA002C2F282B3B2D4C2D5D2D6E2D7F2D6F
:10073000802F912F08E00E94DA0AC22FB32EC42E18
:10074000D52EE62EF72E082F192FDF5FDA11E6CF10
:1007500008C0C0E0B12CC12CD12CE12CF12C00E060
:1007600010E0409A2C2F3B2D4C2D5D2D6E2D7F2DB2
:10077000802F912F08E00E94F50ADF91CF911F9101
:100780000F91FF90EF90DF90CF90BF90AF900895C2
:100790009F92AF92BF92CF92DF92EF92FF920F9310
:1007A0001F93CF93DF93C22FD32FB42EA52E409843
:1007B000862F80620E94FA00982ECC20D1F0D12C96
:1007C0008E2D0E94FA002E2D3F2D402F512F6C2F81
:1007D0007D2F8B2D9A2D08E00E94F50AE22EF32E34
:1007E000042F152FC62FD72FB82EA92ED394DC1087
:1007F000E7CF409A892DDF91CF911F910F91FF9004
:10080000EF90DF90CF90BF90AF909F900895CF92E0
:10081000EF92FF920F931F93CF93DF93EC01E62E9D
:1008200041E060E00E9474032D7FEE0CE22AEB822F
:10083000CC24C394F12C00E010E020E030E040E054
:1008400050E060E0CE010E94C803DF91CF911F917C
:100850000F91FF90EF90CF900895AF92BF92CF92FB
:10086000DF92EF92FF920F931F93CF93DF93EC01F0
:10087000D62E41E060E00E9474032E7FE22EED2828
:10088000EB82CC24C394F12C00E010E020E030E0B7
:1008900040E050E060E0CE010E94C803DD2029F076
:1008A0008DED90E00E94F30204C087EB90E00E947F
:1008B000F30241E060E0CE010E947403AB80B12CF2
:1008C000C12CD12CE12CF12C00E010E00E941D0B7A
:1008D00029F081E890E00E94F30204C088E690E0ED
:1008E0000E94F302DF91CF911F910F91FF90EF9043
:1008F000DF90CF90BF90AF900895CF92EF92FF928C
:100900000F931F93CF93DF93EC01E62E41E06DE14F
:100910000E9474032D7FEE0CE22AEB82CC24C39458
:10092000F12C00E010E020E030E040E050E06DE12C
:10093000CE010E94C803DF91CF911F910F91FF90CC
:10094000EF90CF900895CF92EF92FF920F931F9365
:10095000CF93DF93EC01E62E41E06DE10E9474033A
:100960002B7FEE0CEE0CE22AEB82CC24C394F12C0C
:1009700000E010E020E030E040E050E06DE1CE012A
:100980000E94C803DF91CF911F910F91FF90EF90CC
:10099000CF900895AF92BF92CF92EF92FF920F93B4
:1009A0001F93CF93DF93663048F5C42FD62F5C0199
:1009B00041E06CE10E94740381E090E00D2E02C0E2
:1009C000880F991F0A94E2F7809582234C2F50E0FC
:1009D00002C0440F551FDA95E2F7E82EE42AF5012C
:1009E000E382CC24C394F12C00E010E020E030E05E
:1009F00040E050E06CE1C5010E94C803DF91CF9157
:100A00001F910F91FF90EF90CF90BF90AF900895FE
:100A1000CF92EF92FF920F931F93CF93DF93EC014E
:100A2000E62E41E066E00E947403277FEE0CEE0C98
:100A3000EE0CE22AEB82CC24C394F12C00E010E00F
:100A400020E030E040E050E066E0CE010E94C803C4
:100A5000DF91CF911F910F91FF90EF90CF9008956C
:100A6000CF92EF92FF920F931F930F2EF5E0CF2EB0
:100A7000F02DE02EF12E022F132F242F352F462F8D
:100A8000572F60E10E94C8031F910F91FF90EF90D4
:100A9000CF900895CF92EF92FF920F931F930F2E56
:100AA000F5E0CF2EF02DE02EF12E022F132F242F64
:100AB000352F462F572F6AE00E94C8031F910F91D0
:100AC000FF90EF90CF900895CF92EF92FF920F9307
:100AD0001F93CF93DF93EC01389A399A419A579A32
:100AE0001A8285E291E00E94F302288130E040E022
:100AF00050E060E070E080E090E00E94570282E009
:100B000091E00E94F302298130E040E050E060E093
:100B100070E080E090E00E94570205EB1AEB2AEBB0
:100B20003AEB4AEB50E060E070E0CE010E94300505
:100B30002AEB3AEB4AEB50E060E070E0CE010E9415
:100B40004A0561E0CE010E9408056F81CE010E9436
:100B50002D048885882399F0CE010E946B0361E003
:100B6000CE010E94A30441E060E0CE010E94CA04CD
:100B700061E0CE010E947D04888581110EC0E8806D
:100B8000CC24C394F12C00E010E020E030E040E001
:100B900050E061E1CE010E94C80361E0CE010E94F5
:100BA0000704DF91CF911F910F91FF90EF90CF90AD
:100BB00008953FEF51EE74E0315050407040E1F73E
:100BC00000C00000FC01278321E02087608341836F
:100BD0000E94640508950895109292018BEE95E0AD
:100BE0009093810180938001089590938101809377
:100BF00080010895CF93DF93EC011BA21CA20E94F9
:100C0000FC08CE010E94DC088C8D811104C080910B
:100C10008C018823C9F080918D01882361F081E0E7
:100C20000E94D600E0918201F0918301309761F03B
:100C30008EA1099509C081E00E94D600EE85FF854E
:100C4000309711F08EA10995DF91CF910895CF9340
:100C5000DF93909192019923C1F0D82FC0E0EC2F3F
:100C6000F0E0EE0FFF1FED56FE4F0190F081E02DFA
:100C700091A59D1305C0309719F0CF010E94FA0588
:100C8000CF5F90919201C91750F3DF91CF910895F2
:100C900083B1EEE8F1E0808386B1818389B18283FC
:100CA0000895FC0180A5813049F018F0823059F098
:100CB0000EC080918E018093910109C080918F01B7
:100CC0008093910104C08091900180939101828D65
:100CD00081A32091910130E007A002C035952795AE
:100CE0000A94E2F72170228F0895CF93DF93EC01ED
:100CF0000E9451068A8D811126C089A1882309F49A
:100D000084C0E88DF98D309711F08EA109958BA1E3
:100D1000811108C025E937E040E06CEB72E0CE01BC
:100D20000E94CE0881E08AA38BA1882341F068E568
:100D300072E0CE010E94E90881E08CA31BA28A8D9B
:100D4000882309F462C089A181115FC0EE89FF89FF
:100D5000309711F08EA109958CA1811106C0CE01AA
:100D60000E94E1089DA78CA705C0CE010E94F4084F
:100D70009DA78CA7CE010E94FC08CE010E94DC0832
:100D80001AA28CA59DA50B978D34924098F58CA145
:100D9000811117C08DA181112FC08F8D882359F02B
:100DA00027E236E040E064E670E0CE010E94CE0823
:100DB00081E08BA303C0CE010E94FA058CA1882399
:100DC00009F180918D01882361F081E00E94D600B5
:100DD000E0918801F0918901309761F08EA1099529
:100DE00009C081E00E94D600EA89FB89309711F0A2
:100DF0008EA109958DA181111DA28CA1882329F0B6
:100E00001CA203C08DA18111F7CFDF91CF9108956E
:100E1000CF9380919201882391F0C0E0EC2FF0E015
:100E2000EE0FFF1FED56FE4F80819181009711F06C
:100E30000E947506CF5F80919201C81778F3CF9119
:100E40000895CF93DF93EC0118A21BA21CA28DA1E1
:100E5000882389F1CE010E944806CE010E945106E6
:100E60008A8D811128C08E8D811104C080918A01E4
:100E7000882309F125E937E040E066E470E0CE011F
:100E80000E94CE0880918D01882361F081E00E944C
:100E9000D600E0918401F0918501309761F08EA138
:100EA000099509C081E00E94D600EC89FD89309740
:100EB00011F08EA109958AA18823A1F1CE010E948B
:100EC0004806CE010E9451068A8D81112BC08D8D5E
:100ED000811104C080918B01882321F11AA281E045
:100EE0008DA325E937E040E062E370E0CE010E9487
:100EF000CE0880918D01882361F081E00E94D600A8
:100F0000E0918601F0918701309761F08EA10995FB
:100F100009C081E00E94D600E889F989309711F074
:100F20008EA10995DF91CF910895CF93DF93909192
:100F300092019923C1F0D82FC0E0EC2FF0E0EE0F22
:100F4000FF1FED56FE4F0190F081E02D91A59D13FE
:100F500005C0309719F0CF010E942107CF5F909113
:100F60009201C91750F3DF91CF9108951F920F920C
:100F70000FB60F9211242F933F934F935F936F936C
:100F80007F938F939F93AF93BF93EF93FF9383B11F
:100F9000EEE8F1E0808386B1818389B182830E948B
:100FA000D30080E00E94D6000E940807FF91EF91D5
:100FB000BF91AF919F918F917F916F915F914F9171
:100FC0003F912F910F900FBE0F901F9018951F9279
:100FD0000F920FB60F9211242F933F934F935F936D
:100FE0006F937F938F939F93AF93BF93EF93FF93F1
:100FF0000E94D30080E00E94D6000E940807FF9163
:10100000EF91BF91AF919F918F917F916F915F9180
:101010004F913F912F910F900FBE0F901F901895F9
:101020001F920F920FB60F9211242F933F934F935D
:101030005F936F937F938F939F93AF93BF93EF9340
:10104000FF93E0918001F091810180E0099583B1E7
:10105000EEE8F1E0808386B1818389B182830E94CA
:10106000D30080E00E94D6000E940807FF91EF9114
:10107000BF91AF919F918F917F916F915F914F91B0
:101080003F912F910F900FBE0F901F9018951F92B8
:101090000F920FB60F9211242F933F934F935F93AC
:1010A0006F937F938F939F93AF93BF93EF93FF9330
:1010B000E0918001F091810181E0099583B1EEE832
:1010C000F1E0808386B1818389B182830E94D3005D
:1010D00080E00E94D6000E940807FF91EF91BF9127
:1010E000AF919F918F917F916F915F914F913F91C0
:1010F0002F910F900FBE0F901F9018951F920F9277
:101100000FB60F9211242F933F934F935F936F93DA
:101110007F938F939F93AF93BF93EF93FF93E09150
:101120008001F091810182E0099583B1EEE8F1E060
:10113000808386B1818389B182830E94D30080E05D
:101140000E94D6000E940807FF91EF91BF91AF91D6
:101150009F918F917F916F915F914F913F912F91CF
:101160000F900FBE0F901F90189560E87EE381E00E
:101170000E94000110929F010895DC0190919F014F
:10118000E92FF0E0EE0FFF1FE855FE4FB183A0837B
:1011900015969C939F5F90939F010895FC01718326
:1011A0006083738362833587248781E083874483E8
:1011B00080E00E94D6000895FC01138611821082FF
:1011C0000895FC018281938120813181821B930BE0
:1011D0000895FC017783668381E082877187608749
:1011E00080E00E94D6000895FC01808591852681CB
:1011F0003781821B930B0895FC0117821682128699
:101200000895CF93DF93EC018B858823E1F08881EB
:101210009981009729F0019799838883892B99F404
:101220008C81813029F48A819B819983888305C0D0
:10123000811103C01B8619821882EC85FD853097C9
:1012400011F08D8109958A85882351F08E819F81C7
:10125000009729F001979F838E83892B09F41A86C2
:10126000DF91CF910895CF9380919F01882391F0D2
:10127000C0E0EC2FF0E0EE0FFF1FE855FE4F80813D
:101280009181009711F00E940109CF5F80919F0129
:10129000C81778F3CF9108951F920F920FB60F924F
:1012A00011242F933F934F935F936F937F938F936B
:1012B0009F93AF93BF93EF93FF930E94E701209119
:1012C000A0013091A1014091A2015091A301609130
:1012D000A4017091A5018091A6019091A701A1E0C0
:1012E0000E94110B2093A0013093A1014093A20111
:1012F0005093A3016093A4017093A5018093A6016C
:101300009093A7010E943309FF91EF91BF91AF9194
:101310009F918F917F916F915F914F913F912F910D
:101320000F900FBE0F901F90189588E491E00E94D7
:10133000F3020895CF93C82F80E091E00E940C0340
:10134000C13049F460E081E00E94B101482F62E0C1
:1013500081E00E940F01CF9108950E94D90080E0A2
:1013600090E00E94D40160ED77E082E00E940001ED
:1013700041E062E081E00E94600141E062E082E0E1
:101380000E94600141E063E082E00E94600141E070
:1013900064E082E00E94600141E065E082E00E943A
:1013A000600140E062E082E00E940F0140E063E003
:1013B00082E00E940F0140E064E082E00E940F01A1
:1013C00040E065E082E00E940F0140E062E081E0E1
:1013D0000E940F0140E060E081E00E9460010895FA
:1013E000CF93DF93CDB7DEB767970FB6F894DEBF24
:1013F0000FBECDBF0E94AD092FEF89E698E12150C5
:1014000080409040E1F700C0000088E591E00E9434
:10141000F30221E041E061E0CE010F960E94D90580
:101420000E94E50081E00E94F00078940E94EC05A3
:101430008AE999E00E94F5050E94B508CE0101965F
:101440000E94BD0825E939E040E068EE73E0CE0176
:1014500001960E94CE0883E591E00E94F30211E01C
:101460008091E6018823E1F31092E6018091E70183
:101470008A3A61F16091E701607F70E07595679548
:101480007595679575956795759567956093E50171
:101490008091E7018F708093E401412F811101C099
:1014A00040E06F5F82E00E940F0182E191E00E94C4
:1014B0000C032091E701012F30E040E050E060E0B4
:1014C00070E080E090E00E946103CACF0E94E500D6
:1014D000C7CF1F920F920FB60F9211248F938EB524
:1014E0008093E70181E08093E6018F910F900FBE1A
:1014F0000F901F901895689401C0E8948F929F9266
:10150000CF93DF930E94890ADF91CF919F908F90B4
:10151000089588249924F401E401B0E49F93AA2754
:101520009A158B049C04ED05FE05CF05D007A10795
:1015300098F4AD2FDC2FCF2FFE2FE92D982C892E7C
:10154000982F872F762F652F542F432F322F222746
:10155000B85031F7BF9127C01B2EBF91BB27220F78
:10156000331F441F551F661F771F881F991F881C34
:10157000991CEE1FFF1FCC1FDD1FAA1FBB1F8A1463
:101580009B04EC05FD05CE05DF05A007B10748F07B
:101590008A189B08EC09FD09CE09DF09A00BB10BE5
:1015A00021601A94E1F62EF49401AF01BE01CD0141
:1015B000000C08950F93083090F0982F872F762F06
:1015C000652F542F432F322F22270850F4CF220F9C
:1015D000331F441F551F661F771F881F991F0A95C9
:1015E000B2F70F91089597FB10F8169400080F9327
:1015F000083098F00850232F342F452F562F672F8F
:10160000782F892F902DF4CF05949795879577950E
:10161000679557954795379527950A95AAF70F919E
:1016200008950024A7FD00942A0F301D401D501D71
:10163000601D701D801D901D08952A153B054C05E9
:101640005D056E057F058007910708950024A7FDBD
:1016500000942A1730054005500560057005800587
:0816600090050895F894FFCFF6
:1016680050696E207374617465206368616E676584
:101678006400436F6D6D616E6420726563656976A1
:0616880065643A20000039
:00000001FF
