S020000041546D656761333238505F496E636F6E6172645F4D61696E2E7372656377
S11300000C94AE000C94B4080C94E5080C940E09FE
S11300100C943F090C9470090C9452020C94CB007C
S11300200C94CB000C94CB000C94CB000C943C0AA5
S11300300C94CB000C94CB000C94CB000C94CB0010
S11300400C94CB000C94330C0C94CB000C94CB008C
S11300500C94CB000C94CB000C94CB000C94CB00F0
S11300600C94CB000C94CB00496E697469616C6983
S11300707A696E67207375636365737366756C2E36
S113008000496E697469616C697A6174696F6E2084
S11300906661696C656420666F72206E5246323404
S11300A04C30312E20436865636B20636F6E6E6540
S11300B06374696F6E73005374617274696E672040
S11300C06E524632344C303120696E205472616E67
S11300D0736D6974204D6F64652E2E2E0053746108
S11300E07274696E67206E524632344C3031206926
S11300F06E2052656365697665204D6F64652E2EAA
S11301002E004D6173746572205258205061796CD1
S11301106F6164206C656E67746820736574207405
S11301206F203A20004D617374657220545820503A
S113013061796C6F6164206C656E677468207365A7
S11301407420746F203A2000446F6E6500506F77FE
S11301506572696E67206F6E2E2E2E0011241FBEED
S1130160CFEFD8E0DEBFCDBF11E0A0E0B1E0ECEF0F
S1130170F9E102C005900D92A234B107D9F722E04B
S1130180A2E4B1E001C01D92AF3CB207E1F70E94C6
S11301901D0B0C94FC0C0C94000010926400089548
S11301A0809342010895249884B18C6284B92A9A78
S11301B08CB582658CBD089584B1837D84B9249AFD
S11301C08CB58F7E8CBD8CB580648CBD08958823DE
S11301D021F08CB580648CBD08958CB58F7B8CBD6B
S11301E00895882321F08CB580688CBD08958CB562
S11301F08F778CBD08958EBD0DB407FEFDCF8EB5EF
S1130200089570938900609388001092800087702D
S113021088608093810082E080936F0078940895D1
S11302208130E9F018F0823099F10895442359F0AF
S113023025B181E090E002C0880F991F6A95E2F72A
S1130240822B85B9089525B181E090E002C0880F22
S1130250991F6A95E2F78095822385B9089544230E
S113026059F028B181E090E002C0880F991F6A9587
S1130270E2F7822B88B9089528B181E090E002C0AA
S1130280880F991F6A95E2F78095822388B90895AB
S1130290442359F02BB181E090E002C0880F991FEC
S11302A06A95E2F7822B8BB908952BB181E090E037
S11302B002C0880F991F6A95E2F7809582238BB953
S11302C008958130E9F018F0823099F108954423BB
S11302D059F024B181E090E002C0880F991F6A951B
S11302E0E2F7822B84B9089524B181E090E002C042
S11302F0880F991F6A95E2F78095822384B908953F
S1130300442359F027B181E090E002C0880F991F7F
S11303106A95E2F7822B87B9089527B181E090E0CE
S113032002C0880F991F6A95E2F78095822387B9E6
S11303300895442359F02AB181E090E002C0880F67
S1130340991F6A95E2F7822B8AB908952AB181E050
S113035090E002C0880F991F6A95E2F78095822386
S11303608AB90895E8E6F0E0908121E030E0082EB3
S113037002C0220F331F0A94E2F7292B2083813015
S113038081F018F08230C9F00895EBE6F0E0808146
S113039050E002C0440F551F6A95E2F7482B408392
S11303A00895ECE6F0E0808150E002C0440F551F50
S11303B06A95E2F7482B40830895EDE6F0E08081EA
S11303C050E002C0440F551F6A95E2F7482B408362
S11303D00895813069F018F0823099F01BC083B120
S11303E090E002C0959587956A95E2F7817008952B
S11303F086B190E002C0959587956A95E2F7817081
S1130400089589B190E002C0959587956A95E2F7C1
S11304108170089580E008959093C5008093C4008E
S113042088E18093C1008EE08093C2000895E0ECDF
S1130430F0E0908195FFFDCF8093C6000895209150
S11304404501309146014091470150914801609126
S1130450490170914A0180914B0190914C01A1E0B6
S11304600E94DB0C209345013093460140934701E1
S1130470509348016093490170934A0180934B0162
S113048090934C018091430190914401892B49F050
S1130490809143019091440101979093440180938A
S11304A0430108951F920F920FB60F9211248F9358
S11304B084B78E7F84BF8F910F900FBE0F901F90D3
S11304C018950F93EEE8F1E0A6E9B1E0219308E076
S11304D00E94BF0CEA17FB07C9F78EE891E00F9161
S11304E008958A3010F0895C0895805D08951F9303
S11304F0CF93DF93182F82958F700E947102C6E903
S1130500D1E08883812F8F7080939B010E947102B8
S113051089831A82CE01DF91CF911F9108952F9282
S11305203F924F925F926F927F928F929F92AF927F
S1130530BF92CF92DF92EF92FF920F931F93CF93CC
S1130540DF93CDB7DEB7C756D1090FB6F894DEBF37
S11305500FBECDBFA6962FAFA697832E742E652E01
S1130560562E472E382E292EA0E00E94F00C21F49E
S113057080E30E94170252C0912C81E090E08C0F1E
S11305809D1F890D911DA8969FAF8EAFA8970F2E22
S1130590FAE0AF2EF02DB12CC12CD12CE12CF12C92
S11305A000E010E0A6962FADA697382D472D562DC6
S11305B0652D742D832D922D0E94450C205DA896E7
S11305C0EEADFFADA8972083A6962FADA697382D44
S11305D0472D562D652D742D832D922D0E94470C89
S11305E0A6962FAFA697832E742E652E562E472ED1
S11305F0382E292E9394A0E00E94F00C09F0BDCF70
S1130600992061F09A94E1E0F0E0EC0FFD1FE90D10
S1130610F11D80810E9417029110F4CF80E20E94A4
S11306201702C959DF4F0FB6F894DEBF0FBECDBF16
S1130630DF91CF911F910F91FF90EF90DF90CF90BA
S1130640BF90AF909F908F907F906F905F904F90EE
S11306503F902F900895CF93DF93EC018DE00E949B
S113066017028AE00E941702FE018491882349F050
S1130670FE0184910E9417022196FE01849181114A
S1130680F7CFDF91CF910895CF93DF93EC018DE005
S11306900E9417028AE00E9417028881882331F0A1
S11306A021960E94170289918111FBCFDF91CF918E
S11306B00895CF93DF93EC018881882331F021964C
S11306C00E94170289918111FBCFDF91CF91089588
S11306D0FF920F931F93CF93DF93F62E062F10E014
S11306E001501109080F191F80E30E94170288E7BF
S11306F00E941702FF2081F0E80121968FEF8F0DF1
S1130700081B11098A9180938D010E9477020E942F
S11307105903C017D107B1F7EF2DF0E0E35BFE4FAB
S113072012828DE491E0DF91CF911F910F91FF90A0
S113073008950F930E946102602F0E9468030E9433
S113074059030F910895409880E50E94FB0083E7C8
S11307500E94FB00409A0895862F40980E94FB0057
S1130760409A0895AF92BF92CF92DF92EF92FF9298
S11307700F931F93CF93DF93862FA42E40980E944C
S1130780FB00AA2021F1D0E0C0E0B12CC12CD12C77
S1130790E12CF12C00E010E080E00E94FB002C2F03
S11307A0282B3B2D4C2D5D2D6E2D7F2D802F912FD1
S11307B008E00E94A40CC22FB32EC42ED52EE62E20
S11307C0F72E082F192FDF5FDA11E6CF08C0C0E03B
S11307D0B12CC12CD12CE12CF12C00E010E0409A7A
S11307E02C2F3B2D4C2D5D2D6E2D7F2D802F912F89
S11307F008E00E94BF0CDF91CF911F910F91FF90F1
S1130800EF90DF90CF90BF90AF90089541E067E103
S11308100E94B203822F8270089541E067E10E9432
S1130820B203822F817008959F92AF92BF92CF92AC
S1130830DF92EF92FF920F931F93CF93DF93C22F18
S1130840D32FB42EA52E4098862F80620E94FB00E1
S1130850982ECC20D1F0D12C8E2D0E94FB002E2D71
S11308603F2D402F512F6C2F7D2F8B2D9A2D08E07B
S11308700E94BF0CE22EF32E042F152FC62FD72F64
S1130880B82EA92ED394DC10E7CF409A892DDF919E
S1130890CF911F910F91FF90EF90DF90CF90BF9079
S11308A0AF909F900895CF92EF92FF920F931F9372
S11308B0CF93DF93EC01E62E41E060E00E94B203A7
S11308C02D7FEE0CE22AEB82CC24C394F12C00E0C1
S11308D010E020E030E040E050E060E0CE010E9413
S11308E01404DF91CF911F910F91FF90EF90CF905F
S11308F00895AF92BF92CF92DF92EF92FF920F933F
S11309001F93CF93DF93EC01D62E41E060E00E9469
S1130910B2032B8301E030E040E050E060E070E09F
S113092080E090E00E9499038B818E7FED2CE82A71
S1130930EB82CC24C394F12C00E010E020E030E002
S113094040E050E060E0CE010E941404DD2029F074
S11309508DED90E00E942B0304C087EB90E00E9491
S11309602B0341E060E0CE010E94B203AB80B12CC6
S1130970C12CD12CE12CF12C00E010E00E94E70CFA
S113098029F081E890E00E942B0304C088E690E0FF
S11309900E942B03DF91CF911F910F91FF90EF9055
S11309A0DF90CF90BF90AF900895CF92EF92FF92D7
S11309B00F931F93CF93DF93EC01E62E41E06DE19B
S11309C00E94B2032D7FEE0CE22AEB82CC24C39466
S11309D0F12C00E010E020E030E040E050E06DE178
S11309E0CE010E941404DF91CF911F910F91FF90CB
S11309F0EF90CF900895CF92EF92FF920F931F93B1
S1130A00CF93DF93EC01E62E41E06DE10E94B20347
S1130A102B7FEE0CEE0CE22AEB82CC24C394F12C57
S1130A2000E010E020E030E040E050E06DE1CE0175
S1130A300E941404DF91CF911F910F91FF90EF90CA
S1130A40CF900895AF92BF92CF92EF92FF920F93FF
S1130A501F93CF93DF93663048F5C42FD62F5C01E4
S1130A6041E06CE10E94B20381E090E00D2E02C0EF
S1130A70880F991F0A94E2F7809582234C2F50E047
S1130A8002C0440F551FDA95E2F7E82EE42AF50177
S1130A90E382CC24C394F12C00E010E020E030E0A9
S1130AA040E050E06CE1C5010E941404DF91CF9155
S1130AB01F910F91FF90EF90CF90BF90AF9008954A
S1130AC0CF92EF92FF920F931F93CF93DF93EC019A
S1130AD0E62E41E066E00E94B203277FEE0CEE0CA6
S1130AE0EE0CE22AEB82CC24C394F12C00E010E05B
S1130AF020E030E040E050E066E0CE010E941404C3
S1130B00DF91CF911F910F91FF90EF90CF900895B7
S1130B10CF92EF92FF920F931F930F2EF5E0CF2EFB
S1130B20F02DE02EF12E022F132F242F352F462FD8
S1130B30572F60E10E9414041F910F91FF90EF90D2
S1130B40CF900895CF92EF92FF920F931F930F2EA1
S1130B50F5E0CF2EF02DE02EF12E022F132F242FAF
S1130B60352F462F572F6AE00E9414041F910F91CE
S1130B70FF90EF90CF900895CF92EF92FF920F9352
S1130B801F93CF93DF93EC01389A399A419A579A7D
S1130B901A8285E291E00E942B03288130E040E034
S1130BA050E060E070E080E090E00E948F0282E01C
S1130BB091E00E942B03298130E040E050E060E0A6
S1130BC070E080E090E00E948F0205EB1AEB2AEBC4
S1130BD03AEB4AEB50E060E070E0CE010E948805F9
S1130BE02AEB3AEB4AEB50E060E070E0CE010E9461
S1130BF0A205CC24C394E12CF12C00E010E020E009
S1130C0030E040E050E064E0CE010E94140461E072
S1130C10CE010E9460056F81CE010E94790488850F
S1130C20882381F0CE010E94A30361E0CE010E94DB
S1130C30FB0441E060E0CE010E94220561E0CE01A8
S1130C400E94D50461E0CE010E945304DF91CF914C
S1130C501F910F91FF90EF90CF9008953FEF51EEC9
S1130C6074E0315050407040E1F700C00000FC01D6
S1130C70278321E02087608341830E94BC05089577
S1130C8062EE0E94AC0308959F92AF92BF92CF92FE
S1130C90DF92EF92FF920F931F93CF93DF935C0148
S1130CA0D62E972ECC24C3946894EE24E6F8F12C27
S1130CB000E010E020E030E040E050E067E00E9417
S1130CC01404409881E60E94FB00F501808188238A
S1130CD061F0CD2DD92D80E00E94FB0089932C2F4B
S1130CE02D19F50190812917B0F3409AC5010E948E
S1130CF00604882319F0C5010E944006DF91CF91B4
S1130D001F910F91FF90EF90DF90CF90BF90AF9025
S1130D109F90089508951092AF018AE896E0909309
S1130D209D0180939C010895FC01778766877093E9
S1130D309F0160939E0121E0248F0895CF93DF9358
S1130D40EC011BA21CA20E94E909CE010E94C90960
S1130D508C8D811104C08091A9018823C9F08091F0
S1130D60AA01882361F081E00E94D000E0919E01F5
S1130D70F0919F01309761F08EA1099509C081E03F
S1130D800E94D000EE85FF85309711F08EA1099561
S1130D90DF91CF910895CF93DF939091AF01992381
S1130DA0C1F0D82FC0E0EC2FF0E0EE0FFF1FE055AC
S1130DB0FE4F0190F081E02D91A59D1305C0309761
S1130DC019F0CF010E949E06CF5F9091AF01C91721
S1130DD050F3DF91CF9108958093AA018093A901E4
S1130DE08093A8018093A7018093A601089583B1FD
S1130DF0EBEAF1E0808386B1818389B1828308952F
S1130E00FC0180A5813049F018F0823059F00EC001
S1130E108091AB018093AE0109C08091AC018093B5
S1130E20AE0104C08091AD018093AE01828D81A397
S1130E302091AE0130E007A002C0359527950A94B1
S1130E40E2F72170228F0895EF92FF920F931F9380
S1130E50CF93DF93EC01F62EE42E89011F861E86C4
S1130E601B8A1A8A198A188A1D8A1C8A1F8A1E8A52
S1130E70198E188E0E94AA09EFA2F8A640E06E2DE2
S1130E808F2D0E94610141E06FA188A50E9410018D
S1130E9041E06E2D8F2D0E94B20188A5813041F072
S1130EA018F0823049F00BC083B18093AE0107C0C3
S1130EB086B18093AE0103C089B18093AE01809165
S1130EC0AF01E82FF0E0EE0FFF1FE055FE4F118356
S1130ED000838EA38F5F8093AF01CE010E94F7063B
S1130EE0CE010E9400071F8ECE010E94390A89A7F5
S1130EF0DF91CF911F910F91FF90EF900895CF93C1
S1130F00DF93EC010E9400078A8D811120C089A122
S1130F10882309F478C08BA1811108C023E938E043
S1130F2040E06CEB72E0CE010E94BB0981E08AA331
S1130F308BA1882341F068E572E0CE010E94D609B6
S1130F4081E08CA31BA28A8D882309F45CC089A14B
S1130F50811159C08CA1811106C0CE010E94CE0915
S1130F609DA78CA705C0CE010E94E1099DA78CA76F
S1130F70CE010E94E909CE010E94C9091AA28CA5DA
S1130F809DA50B978D34924098F58CA1811117C0C3
S1130F908DA181112FC08F8D882359F02BEC36E061
S1130FA040E064E670E0CE010E94BB0981E08BA3BF
S1130FB003C0CE010E949E068CA1882309F1809172
S1130FC0AA01882361F081E00E94D000E091A4018D
S1130FD0F091A501309761F08EA1099509C081E0D7
S1130FE00E94D000EA89FB89309711F08EA10995FF
S1130FF08DA181111DA28CA1882329F01CA203C0FC
S11310008DA18111F7CFDF91CF910895CF93809176
S1131010AF01882391F0C0E0EC2FF0E0EE0FFF1F4A
S1131020E055FE4F80819181009711F00E947F0767
S1131030CF5F8091AF01C81778F3CF910895CF9314
S1131040DF93EC0118A21BA21CA28DA1882389F1B5
S1131050CE010E94F706CE010E9400078A8D8111FD
S113106028C08E8D811104C08091A601882309F1C6
S113107023E938E040E066E470E0CE010E94BB0959
S11310808091AA01882361F081E00E94D000E09160
S1131090A001F091A101309761F08EA1099509C0DA
S11310A081E00E94D000EC89FD89309711F08EA177
S11310B009958AA18823A1F1CE010E94F706CE01E9
S11310C00E9400078A8D81112BC08D8D811104C06F
S11310D08091A701882321F11AA281E08DA323E93D
S11310E038E040E062E370E0CE010E94BB098091E9
S11310F0AA01882361F081E00E94D000E091A2015E
S1131100F091A301309761F08EA1099509C081E0A7
S11311100E94D000E889F989309711F08EA10995D1
S1131120DF91CF910895CF93DF939091AF019923ED
S1131130C1F0D82FC0E0EC2FF0E0EE0FFF1FE05518
S1131140FE4F0190F081E02D91A59D1305C03097CD
S113115019F0CF010E941F08CF5F9091AF01C9170A
S113116050F3DF91CF9108951F920F920FB60F9213
S113117011242F933F934F935F936F937F938F9398
S11311809F93AF93BF93EF93FF9383B1EBEAF1E0A7
S1131190808386B1818389B182830E94CD0080E0FF
S11311A00E94D0000E940608FF91EF91BF91AF9179
S11311B09F918F917F916F915F914F913F912F916B
S11311C00F900FBE0F901F9018951F920F920FB69D
S11311D00F9211242F933F934F935F936F937F93B9
S11311E08F939F93AF93BF93EF93FF930E94CD0090
S11311F080E00E94D0000E940608FF91EF91BF9109
S1131200AF919F918F917F916F915F914F913F919A
S11312102F910F900FBE0F901F9018951F920F9251
S11312200FB60F9211242F933F934F935F936F93B5
S11312307F938F939F93AF93BF93EF93FF9383B168
S1131240EBEAF1E0808386B1818389B182830E94D5
S1131250CD0080E00E94D0000E940608FF91EF912B
S1131260BF91AF919F918F917F916F915F914F91BA
S11312703F912F910F900FBE0F901F9018951F92C2
S11312800F920FB60F9211242F933F934F935F93B6
S11312906F937F938F939F93AF93BF93EF93FF933A
S11312A083B1EBEAF1E0808386B1818389B18283E3
S11312B00E94CD0080E00E94D0000E940608FF91A9
S11312C0EF91BF91AF919F918F917F916F915F91BA
S11312D04F913F912F910F900FBE0F901F90189533
S11312E01F920F920FB60F9211242F933F934F9397
S11312F05F936F937F938F939F93AF93BF93EF937A
S1131300FF9383B1EBEAF1E0808386B1818389B1F5
S113131082830E94CD0080E00E94D0000E940608D3
S1131320FF91EF91BF91AF919F918F917F916F91B9
S11313305F914F913F912F910F900FBE0F901F908F
S1131340189560E87EE381E00E94010181E08093CA
S1131350BC010895DC019091BC01E92FF0E0EE0F8F
S1131360FF1FEB53FE4FB183A08315969C939F5FA1
S11313709093BC010895FC0171836083738362833D
S11313803587248781E08387448380E00E94D000EE
S11313900895FC011386118210820895FC01828154
S11313A0938120813181821B930B0895FC01778303
S11313B0668381E082877187608780E00E94D00025
S11313C00895FC018085918526813781821B930BCA
S11313D00895FC011782168212860895CF93DF9335
S11313E0EC018B858823E1F088819981009729F0AD
S11313F0019799838883892B99F48C81813029F40E
S11314008A819B819983888305C0811103C01B86CF
S113141019821882EC85FD85309711F08D8109952C
S11314208A85882351F08E819F81009729F0019746
S11314309F838E83892B09F41A86DF91CF910895B7
S1131440CF938091BC01882391F0C0E0EC2FF0E0B1
S1131450EE0FFF1FEB53FE4F80819181009711F037
S11314600E94EE09CF5F8091BC01C81778F3CF9139
S11314700895FC01858108951F920F920FB60F9273
S113148011242F933F934F935F936F937F938F9385
S11314909F93AF93BF93EF93FF930E941F022091FA
S11314A0BD013091BE014091BF015091C0016091D6
S11314B0C1017091C2018091C3019091C401A1E066
S11314C00E94DB0C2093BD013093BE014093BF0109
S11314D05093C0016093C1017093C2018093C30112
S11314E09093C4010E94200AFF91EF91BF91AF91A4
S11314F09F918F917F916F915F914F913F912F9128
S11315000F900FBE0F901F90189591E09093CA0210
S11315108093CD02089581E08093CB024399439850
S11315200895823079F018F4813031F008958330D1
S113153079F0843099F00895462F63E082E00E94A8
S113154010010895462F62E082E00E941001089580
S1131550462F65E082E00E9410010895462F64E062
S113156082E00E9410010895823071F018F48130F5
S113157031F019C0833069F0843081F014C063E025
S113158082E00E94E901089562E082E00E94E9019C
S1131590089565E082E00E94E901089564E082E034
S11315A00E94E901089580E0089581E090E00E949E
S11315B00C0260ED77E082E00E94010141E062E00C
S11315C081E00E94610141E063E081E00E946101E9
S11315D041E062E082E00E94610141E063E082E078
S11315E00E94610141E064E082E00E94610141E007
S11315F065E082E00E94610140E062E082E00E94D6
S1131600100140E063E082E00E94100140E064E0E9
S113161082E00E94100140E065E082E00E94100137
S113162040E062E081E00E94100140E060E081E07F
S11316300E9461010E94D3000895CF93DF93CDB738
S1131640DEB729970FB6F894DEBF0FBECDBF0E9458
S1131650D50A2FEF89E698E1215080409040E1F7C8
S113166000C000008DE491E00E942B0321E041E0E2
S113167061E0CE0101960E942E0661E0CE01019642
S11316800E9453040E94DC0081E00E94F1007894DF
S11316900E94A10989EB92E00E94AA092BE83AE092
S11316A040E064E670E089EB92E00E94BB090E948E
S11316B08B062BE832E046E062E0C9010E94240771
S11316C02DE532E047E062E0C9010E9424072FE2E1
S11316D032E040E060E0C9010E94240721E032E0EA
S11316E041E060E0C9010E94240765E87AE08BE8E4
S11316F092E00E94940681E00E94EC0688E491E066
S11317000E942B038091CC02882309F483C0109299
S1131710CC028091CE028A3AA1F18091CE02807FE0
S113172090E0959587959595879595958795959549
S113173087958093C9022091CE022F702093C8020E
S113174061E0211101C060E00E94910A439A2BE8F4
S11317503AE040E06EE170E089EB92E00E94BB0960
S113176082E191E00E9444032091CE0201E030E046
S113177040E050E060E070E080E090E00E94990377
S113178042C080E00E94F10080E00E94E7000E94D5
S1131790D300CE0101960E940D0481112CC067EC88
S11317A072E0CE0101960E9444068091C7028F5FC9
S11317B00E94B40A61E068278091C7028F5F0E948B
S11317C0910A439A2BE83AE040E06EE170E089EB3D
S11317D092E00E94BB0985E291E00E9444032091BB
S11317E0C70201E030E040E050E060E070E080E0FB
S11317F090E00E94990380E00E94E7000E94DC00D0
S113180081E00E94F10089B190E0959587959595C6
S113181087958EBD8091CA028823C9F01092CA02AE
S11318208091CD028F5F0E94B40A9091CD0261E055
S1131830682781E0890F0E94910A439A2BE83AE0D5
S113184040E06EE170E089EB92E00E94BB09809178
S1131850CB02882309F456CF1092CB0285E391E0A2
S11318600E9444034FCF1F920F920FB60F92112480
S11318708F938EB58093CE0281E08093CC028F91BA
S11318800F900FBE0F901F901895689401C0E894B4
S11318908F929F92CF93DF930E94530CDF91CF914D
S11318A09F908F90089588249924F401E401B0E472
S11318B09F93AA279A158B049C04ED05FE05CF057A
S11318C0D007A10798F4AD2FDC2FCF2FFE2FE92DE1
S11318D0982C892E982F872F762F652F542F432FDE
S11318E0322F2227B85031F7BF9127C01B2EBF914A
S11318F0BB27220F331F441F551F661F771F881FE6
S1131900991F881C991CEE1FFF1FCC1FDD1FAA1FE7
S1131910BB1F8A149B04EC05FD05CE05DF05A0075B
S1131920B10748F08A189B08EC09FD09CE09DF09C4
S1131930A00BB10B21601A94E1F62EF49401AF01CF
S1131940BE01CD01000C08950F93083090F0982F3C
S1131950872F762F652F542F432F322F222708509D
S1131960F4CF220F331F441F551F661F771F881F94
S1131970991F0A95B2F70F91089597FB10F81694E2
S113198000080F93083098F00850232F342F452F68
S1131990562F672F782F892F902DF4CF0594979584
S11319A087957795679557954795379527950A9520
S11319B0AAF70F9108950024A7FD00942A0F301D63
S11319C0401D501D601D701D801D901D08952A1519
S11319D03B054C055D056E057F058007910708955D
S11319E00024A7FD00942A17300540055005600522
S10F19F07005800590050895F894FFCF61
S11319FC50696E207374617465206368616E6765E9
S1131A0C6400436F6D6D616E642072656365697605
S1131A1C65643A200044617461207265636569767B
S1131A2C65643A200054696D657220646F6E652E8E
S1051A3C0000A4
S9030000FC
